{
  "contractName": "Secondary",
  "abi": [
    {
      "inputs": [],
      "stateMutability": "nonpayable",
      "type": "constructor"
    },
    {
      "anonymous": false,
      "inputs": [
        {
          "indexed": false,
          "internalType": "address",
          "name": "recipient",
          "type": "address"
        }
      ],
      "name": "PrimaryTransferred",
      "type": "event"
    },
    {
      "inputs": [],
      "name": "primary",
      "outputs": [
        {
          "internalType": "address",
          "name": "",
          "type": "address"
        }
      ],
      "stateMutability": "view",
      "type": "function"
    },
    {
      "inputs": [
        {
          "internalType": "address",
          "name": "recipient",
          "type": "address"
        }
      ],
      "name": "transferPrimary",
      "outputs": [],
      "stateMutability": "nonpayable",
      "type": "function"
    }
  ],
  "bytecode": "0x608060405234801561001057600080fd5b50336000806101000a81548173ffffffffffffffffffffffffffffffffffffffff021916908373ffffffffffffffffffffffffffffffffffffffff1602179055507f4101e71e974f68df5e9730cc223280b41654676bbb052cdcc735c3337e64d2d960008054906101000a900473ffffffffffffffffffffffffffffffffffffffff166040516100a091906100bc565b60405180910390a1610109565b6100b6816100d7565b82525050565b60006020820190506100d160008301846100ad565b92915050565b60006100e2826100e9565b9050919050565b600073ffffffffffffffffffffffffffffffffffffffff82169050919050565b610452806101186000396000f3fe608060405234801561001057600080fd5b50600436106100365760003560e01c80632348238c1461003b578063c6dbdf6114610057575b600080fd5b6100556004803603810190610050919061024b565b610075565b005b61005f61020d565b60405161006c91906102c9565b60405180910390f35b60008054906101000a900473ffffffffffffffffffffffffffffffffffffffff1673ffffffffffffffffffffffffffffffffffffffff163373ffffffffffffffffffffffffffffffffffffffff1614610103576040517f08c379a00000000000000000000000000000000000000000000000000000000081526004016100fa90610304565b60405180910390fd5b600073ffffffffffffffffffffffffffffffffffffffff168173ffffffffffffffffffffffffffffffffffffffff161415610173576040517f08c379a000000000000000000000000000000000000000000000000000000000815260040161016a906102e4565b60405180910390fd5b806000806101000a81548173ffffffffffffffffffffffffffffffffffffffff021916908373ffffffffffffffffffffffffffffffffffffffff1602179055507f4101e71e974f68df5e9730cc223280b41654676bbb052cdcc735c3337e64d2d960008054906101000a900473ffffffffffffffffffffffffffffffffffffffff1660405161020291906102c9565b60405180910390a150565b60008060009054906101000a900473ffffffffffffffffffffffffffffffffffffffff16905090565b60008135905061024581610405565b92915050565b60006020828403121561025d57600080fd5b600061026b84828501610236565b91505092915050565b61027d81610335565b82525050565b6000610290602a83610324565b915061029b82610367565b604082019050919050565b60006102b3602c83610324565b91506102be826103b6565b604082019050919050565b60006020820190506102de6000830184610274565b92915050565b600060208201905081810360008301526102fd81610283565b9050919050565b6000602082019050818103600083015261031d816102a6565b9050919050565b600082825260208201905092915050565b600061034082610347565b9050919050565b600073ffffffffffffffffffffffffffffffffffffffff82169050919050565b7f5365636f6e646172793a206e6577207072696d61727920697320746865207a6560008201527f726f206164647265737300000000000000000000000000000000000000000000602082015250565b7f5365636f6e646172793a2063616c6c6572206973206e6f74207468652070726960008201527f6d617279206163636f756e740000000000000000000000000000000000000000602082015250565b61040e81610335565b811461041957600080fd5b5056fea2646970667358221220ac605c3dab17b0d84ad8b73a9452aa6687a9c1b56a84185995161da5a8f6c5bf64736f6c63430008020033",
  "immutableReferences": {},
  "source": "// SPDX-License-Identifier: MIT\npragma solidity ^0.8.2;\n\n/**\n * @dev A Secondary contract can only be used by its primary account (the one that created it).\n */\ncontract Secondary {\n    address private _primary;\n\n    /**\n     * @dev Emitted when the primary contract changes.\n     */\n    event PrimaryTransferred(address recipient);\n\n    /**\n     * @dev Sets the primary account to the one that is creating the Secondary contract.\n     */\n    constructor() {\n        _primary = msg.sender;\n        emit PrimaryTransferred(_primary);\n    }\n\n    /**\n     * @dev Reverts if called from any account other than the primary.\n     */\n    modifier onlyPrimary() {\n        require(\n            msg.sender == _primary,\n            \"Secondary: caller is not the primary account\"\n        );\n        _;\n    }\n\n    /**\n     * @return the address of the primary.\n     */\n    function primary() public view returns (address) {\n        return _primary;\n    }\n\n    /**\n     * @dev Transfers contract to a new primary.\n     * @param recipient The address of new primary.\n     */\n    function transferPrimary(address recipient) public onlyPrimary {\n        require(\n            recipient != address(0),\n            \"Secondary: new primary is the zero address\"\n        );\n        _primary = recipient;\n        emit PrimaryTransferred(_primary);\n    }\n}\n",
  "sourcePath": "/Users/tischlerkristof/MayIFit/Work/test/colibri/contracts/helpers/Secondary.sol",
  "compiler": {
    "name": "solc",
    "version": "0.8.2+commit.661d1103.Emscripten.clang"
  },
  "schemaVersion": "3.4.3",
  "updatedAt": "2021-10-28T10:37:35.022Z",
  "devdoc": {
    "details": "A Secondary contract can only be used by its primary account (the one that created it).",
    "events": {
      "PrimaryTransferred(address)": {
        "details": "Emitted when the primary contract changes."
      }
    },
    "kind": "dev",
    "methods": {
      "constructor": {
        "details": "Sets the primary account to the one that is creating the Secondary contract."
      },
      "primary()": {
        "returns": {
          "_0": "the address of the primary."
        }
      },
      "transferPrimary(address)": {
        "details": "Transfers contract to a new primary.",
        "params": {
          "recipient": "The address of new primary."
        }
      }
    },
    "version": 1
  },
  "userdoc": {
    "kind": "user",
    "methods": {},
    "version": 1
  }
}