{
  "contractName": "Splitter",
  "abi": [
    {
      "inputs": [
        {
          "internalType": "address[]",
          "name": "_payees",
          "type": "address[]"
        },
        {
          "internalType": "uint256[]",
          "name": "_shares",
          "type": "uint256[]"
        }
      ],
      "stateMutability": "nonpayable",
      "type": "constructor"
    },
    {
      "anonymous": false,
      "inputs": [
        {
          "indexed": false,
          "internalType": "address",
          "name": "account",
          "type": "address"
        },
        {
          "indexed": false,
          "internalType": "uint256",
          "name": "shares",
          "type": "uint256"
        }
      ],
      "name": "PayeeAdded",
      "type": "event"
    },
    {
      "anonymous": false,
      "inputs": [
        {
          "indexed": false,
          "internalType": "address",
          "name": "from",
          "type": "address"
        },
        {
          "indexed": false,
          "internalType": "uint256",
          "name": "amount",
          "type": "uint256"
        }
      ],
      "name": "PaymentReceived",
      "type": "event"
    },
    {
      "anonymous": false,
      "inputs": [
        {
          "indexed": false,
          "internalType": "address",
          "name": "to",
          "type": "address"
        },
        {
          "indexed": false,
          "internalType": "uint256",
          "name": "amount",
          "type": "uint256"
        }
      ],
      "name": "PaymentReleased",
      "type": "event"
    },
    {
      "anonymous": false,
      "inputs": [
        {
          "indexed": true,
          "internalType": "bytes32",
          "name": "role",
          "type": "bytes32"
        },
        {
          "indexed": true,
          "internalType": "bytes32",
          "name": "previousAdminRole",
          "type": "bytes32"
        },
        {
          "indexed": true,
          "internalType": "bytes32",
          "name": "newAdminRole",
          "type": "bytes32"
        }
      ],
      "name": "RoleAdminChanged",
      "type": "event"
    },
    {
      "anonymous": false,
      "inputs": [
        {
          "indexed": true,
          "internalType": "bytes32",
          "name": "role",
          "type": "bytes32"
        },
        {
          "indexed": true,
          "internalType": "address",
          "name": "account",
          "type": "address"
        },
        {
          "indexed": true,
          "internalType": "address",
          "name": "sender",
          "type": "address"
        }
      ],
      "name": "RoleGranted",
      "type": "event"
    },
    {
      "anonymous": false,
      "inputs": [
        {
          "indexed": true,
          "internalType": "bytes32",
          "name": "role",
          "type": "bytes32"
        },
        {
          "indexed": true,
          "internalType": "address",
          "name": "account",
          "type": "address"
        },
        {
          "indexed": true,
          "internalType": "address",
          "name": "sender",
          "type": "address"
        }
      ],
      "name": "RoleRevoked",
      "type": "event"
    },
    {
      "inputs": [],
      "name": "DEFAULT_ADMIN_ROLE",
      "outputs": [
        {
          "internalType": "bytes32",
          "name": "",
          "type": "bytes32"
        }
      ],
      "stateMutability": "view",
      "type": "function",
      "constant": true
    },
    {
      "inputs": [
        {
          "internalType": "bytes32",
          "name": "role",
          "type": "bytes32"
        }
      ],
      "name": "getRoleAdmin",
      "outputs": [
        {
          "internalType": "bytes32",
          "name": "",
          "type": "bytes32"
        }
      ],
      "stateMutability": "view",
      "type": "function",
      "constant": true
    },
    {
      "inputs": [
        {
          "internalType": "bytes32",
          "name": "role",
          "type": "bytes32"
        },
        {
          "internalType": "address",
          "name": "account",
          "type": "address"
        }
      ],
      "name": "grantRole",
      "outputs": [],
      "stateMutability": "nonpayable",
      "type": "function"
    },
    {
      "inputs": [
        {
          "internalType": "bytes32",
          "name": "role",
          "type": "bytes32"
        },
        {
          "internalType": "address",
          "name": "account",
          "type": "address"
        }
      ],
      "name": "hasRole",
      "outputs": [
        {
          "internalType": "bool",
          "name": "",
          "type": "bool"
        }
      ],
      "stateMutability": "view",
      "type": "function",
      "constant": true
    },
    {
      "inputs": [
        {
          "internalType": "uint256",
          "name": "index",
          "type": "uint256"
        }
      ],
      "name": "payee",
      "outputs": [
        {
          "internalType": "address",
          "name": "",
          "type": "address"
        }
      ],
      "stateMutability": "view",
      "type": "function",
      "constant": true
    },
    {
      "inputs": [
        {
          "internalType": "address",
          "name": "account",
          "type": "address"
        }
      ],
      "name": "released",
      "outputs": [
        {
          "internalType": "uint256",
          "name": "",
          "type": "uint256"
        }
      ],
      "stateMutability": "view",
      "type": "function",
      "constant": true
    },
    {
      "inputs": [
        {
          "internalType": "bytes32",
          "name": "role",
          "type": "bytes32"
        },
        {
          "internalType": "address",
          "name": "account",
          "type": "address"
        }
      ],
      "name": "renounceRole",
      "outputs": [],
      "stateMutability": "nonpayable",
      "type": "function"
    },
    {
      "inputs": [
        {
          "internalType": "bytes32",
          "name": "role",
          "type": "bytes32"
        },
        {
          "internalType": "address",
          "name": "account",
          "type": "address"
        }
      ],
      "name": "revokeRole",
      "outputs": [],
      "stateMutability": "nonpayable",
      "type": "function"
    },
    {
      "inputs": [
        {
          "internalType": "address",
          "name": "account",
          "type": "address"
        }
      ],
      "name": "shares",
      "outputs": [
        {
          "internalType": "uint256",
          "name": "",
          "type": "uint256"
        }
      ],
      "stateMutability": "view",
      "type": "function",
      "constant": true
    },
    {
      "inputs": [
        {
          "internalType": "bytes4",
          "name": "interfaceId",
          "type": "bytes4"
        }
      ],
      "name": "supportsInterface",
      "outputs": [
        {
          "internalType": "bool",
          "name": "",
          "type": "bool"
        }
      ],
      "stateMutability": "view",
      "type": "function",
      "constant": true
    },
    {
      "inputs": [],
      "name": "totalReleased",
      "outputs": [
        {
          "internalType": "uint256",
          "name": "",
          "type": "uint256"
        }
      ],
      "stateMutability": "view",
      "type": "function",
      "constant": true
    },
    {
      "inputs": [],
      "name": "totalShares",
      "outputs": [
        {
          "internalType": "uint256",
          "name": "",
          "type": "uint256"
        }
      ],
      "stateMutability": "view",
      "type": "function",
      "constant": true
    },
    {
      "stateMutability": "payable",
      "type": "receive",
      "payable": true
    },
    {
      "inputs": [
        {
          "internalType": "address payable",
          "name": "account",
          "type": "address"
        }
      ],
      "name": "release",
      "outputs": [],
      "stateMutability": "nonpayable",
      "type": "function"
    }
  ],
  "bytecode": "0x60806040523480156200001157600080fd5b50604051620027dd380380620027dd833981810160405281019062000037919062000730565b8181805182511462000080576040517f08c379a00000000000000000000000000000000000000000000000000000000081526004016200007790620008d7565b60405180910390fd5b6000825111620000c7576040517f08c379a0000000000000000000000000000000000000000000000000000000008152600401620000be906200091b565b60405180910390fd5b60005b82518110156200017e576200016883828151811062000112577f4e487b7100000000000000000000000000000000000000000000000000000000600052603260045260246000fd5b602002602001015183838151811062000154577f4e487b7100000000000000000000000000000000000000000000000000000000600052603260045260246000fd5b60200260200101516200020960201b60201c565b8080620001759062000ad5565b915050620000ca565b50505060005b82518160ff1610156200020057620001ea6000801b848360ff1681518110620001d6577f4e487b7100000000000000000000000000000000000000000000000000000000600052603260045260246000fd5b60200260200101516200044360201b60201c565b8080620001f79062000b23565b91505062000184565b50505062000d34565b600073ffffffffffffffffffffffffffffffffffffffff168273ffffffffffffffffffffffffffffffffffffffff1614156200027c576040517f08c379a00000000000000000000000000000000000000000000000000000000081526004016200027390620008b5565b60405180910390fd5b60008111620002c2576040517f08c379a0000000000000000000000000000000000000000000000000000000008152600401620002b9906200093d565b60405180910390fd5b6000600260008473ffffffffffffffffffffffffffffffffffffffff1673ffffffffffffffffffffffffffffffffffffffff168152602001908152602001600020541462000347576040517f08c379a00000000000000000000000000000000000000000000000000000000081526004016200033e90620008f9565b60405180910390fd5b6004829080600181540180825580915050600190039060005260206000200160009091909190916101000a81548173ffffffffffffffffffffffffffffffffffffffff021916908373ffffffffffffffffffffffffffffffffffffffff16021790555080600260008473ffffffffffffffffffffffffffffffffffffffff1673ffffffffffffffffffffffffffffffffffffffff1681526020019081526020016000208190555080600054620003fe9190620009f7565b6000819055507f40c340f65e17194d14ddddb073d3c9f888e3cb52b5aae0c6c7706b4fbc905fac82826040516200043792919062000888565b60405180910390a15050565b6200045582826200045960201b60201c565b5050565b6200046b82826200054b60201b60201c565b620005475760016005600084815260200190815260200160002060000160008373ffffffffffffffffffffffffffffffffffffffff1673ffffffffffffffffffffffffffffffffffffffff16815260200190815260200160002060006101000a81548160ff021916908315150217905550620004ec620005b660201b60201c565b73ffffffffffffffffffffffffffffffffffffffff168173ffffffffffffffffffffffffffffffffffffffff16837f2f8788117e7eff1d82e926ec794901d17c78024a50270940304540a733656f0d60405160405180910390a45b5050565b60006005600084815260200190815260200160002060000160008373ffffffffffffffffffffffffffffffffffffffff1673ffffffffffffffffffffffffffffffffffffffff16815260200190815260200160002060009054906101000a900460ff16905092915050565b600033905090565b6000620005d5620005cf8462000988565b6200095f565b90508083825260208201905082856020860282011115620005f557600080fd5b60005b858110156200062957816200060e8882620006a8565b845260208401935060208301925050600181019050620005f8565b5050509392505050565b60006200064a6200064484620009b7565b6200095f565b905080838252602082019050828560208602820111156200066a57600080fd5b60005b858110156200069e578162000683888262000719565b8452602084019350602083019250506001810190506200066d565b5050509392505050565b600081519050620006b98162000d00565b92915050565b600082601f830112620006d157600080fd5b8151620006e3848260208601620005be565b91505092915050565b600082601f830112620006fe57600080fd5b81516200071084826020860162000633565b91505092915050565b6000815190506200072a8162000d1a565b92915050565b600080604083850312156200074457600080fd5b600083015167ffffffffffffffff8111156200075f57600080fd5b6200076d85828601620006bf565b925050602083015167ffffffffffffffff8111156200078b57600080fd5b6200079985828601620006ec565b9150509250929050565b620007ae8162000a54565b82525050565b6000620007c3602c83620009e6565b9150620007d08262000bc1565b604082019050919050565b6000620007ea603283620009e6565b9150620007f78262000c10565b604082019050919050565b600062000811602b83620009e6565b91506200081e8262000c5f565b604082019050919050565b600062000838601a83620009e6565b9150620008458262000cae565b602082019050919050565b60006200085f601d83620009e6565b91506200086c8262000cd7565b602082019050919050565b620008828162000a88565b82525050565b60006040820190506200089f6000830185620007a3565b620008ae602083018462000877565b9392505050565b60006020820190508181036000830152620008d081620007b4565b9050919050565b60006020820190508181036000830152620008f281620007db565b9050919050565b60006020820190508181036000830152620009148162000802565b9050919050565b60006020820190508181036000830152620009368162000829565b9050919050565b60006020820190508181036000830152620009588162000850565b9050919050565b60006200096b6200097e565b905062000979828262000a9f565b919050565b6000604051905090565b600067ffffffffffffffff821115620009a657620009a562000b81565b5b602082029050602081019050919050565b600067ffffffffffffffff821115620009d557620009d462000b81565b5b602082029050602081019050919050565b600082825260208201905092915050565b600062000a048262000a88565b915062000a118362000a88565b9250827fffffffffffffffffffffffffffffffffffffffffffffffffffffffffffffffff0382111562000a495762000a4862000b52565b5b828201905092915050565b600062000a618262000a68565b9050919050565b600073ffffffffffffffffffffffffffffffffffffffff82169050919050565b6000819050919050565b600060ff82169050919050565b62000aaa8262000bb0565b810181811067ffffffffffffffff8211171562000acc5762000acb62000b81565b5b80604052505050565b600062000ae28262000a88565b91507fffffffffffffffffffffffffffffffffffffffffffffffffffffffffffffffff82141562000b185762000b1762000b52565b5b600182019050919050565b600062000b308262000a92565b915060ff82141562000b475762000b4662000b52565b5b600182019050919050565b7f4e487b7100000000000000000000000000000000000000000000000000000000600052601160045260246000fd5b7f4e487b7100000000000000000000000000000000000000000000000000000000600052604160045260246000fd5b6000601f19601f8301169050919050565b7f5061796d656e7453706c69747465723a206163636f756e74206973207468652060008201527f7a65726f20616464726573730000000000000000000000000000000000000000602082015250565b7f5061796d656e7453706c69747465723a2070617965657320616e64207368617260008201527f6573206c656e677468206d69736d617463680000000000000000000000000000602082015250565b7f5061796d656e7453706c69747465723a206163636f756e7420616c726561647960008201527f2068617320736861726573000000000000000000000000000000000000000000602082015250565b7f5061796d656e7453706c69747465723a206e6f20706179656573000000000000600082015250565b7f5061796d656e7453706c69747465723a20736861726573206172652030000000600082015250565b62000d0b8162000a54565b811462000d1757600080fd5b50565b62000d258162000a88565b811462000d3157600080fd5b50565b611a998062000d446000396000f3fe6080604052600436106100c65760003560e01c80638b83209b1161007f578063a217fddf11610059578063a217fddf146102e9578063ce7c2ac214610314578063d547741f14610351578063e33b7de31461037a5761010d565b80638b83209b1461023257806391d148541461026f5780639852595c146102ac5761010d565b806301ffc9a714610112578063191655871461014f578063248a9ca3146101785780632f2ff15d146101b557806336568abe146101de5780633a98ef39146102075761010d565b3661010d577f6ef95f06320e7a25a04a175ca677b7052bdd97131872c2192525a629f51be7706100f46103a5565b346040516101039291906113d8565b60405180910390a1005b600080fd5b34801561011e57600080fd5b5061013960048036038101906101349190611103565b6103ad565b6040516101469190611401565b60405180910390f35b34801561015b57600080fd5b5061017660048036038101906101719190611075565b610427565b005b34801561018457600080fd5b5061019f600480360381019061019a919061109e565b610449565b6040516101ac919061141c565b60405180910390f35b3480156101c157600080fd5b506101dc60048036038101906101d791906110c7565b610469565b005b3480156101ea57600080fd5b50610205600480360381019061020091906110c7565b610492565b005b34801561021357600080fd5b5061021c610515565b6040516102299190611519565b60405180910390f35b34801561023e57600080fd5b506102596004803603810190610254919061112c565b61051e565b6040516102669190611394565b60405180910390f35b34801561027b57600080fd5b50610296600480360381019061029191906110c7565b61058c565b6040516102a39190611401565b60405180910390f35b3480156102b857600080fd5b506102d360048036038101906102ce919061104c565b6105f7565b6040516102e09190611519565b60405180910390f35b3480156102f557600080fd5b506102fe610640565b60405161030b919061141c565b60405180910390f35b34801561032057600080fd5b5061033b6004803603810190610336919061104c565b610647565b6040516103489190611519565b60405180910390f35b34801561035d57600080fd5b50610378600480360381019061037391906110c7565b610690565b005b34801561038657600080fd5b5061038f6106b9565b60405161039c9190611519565b60405180910390f35b600033905090565b60007f7965db0b000000000000000000000000000000000000000000000000000000007bffffffffffffffffffffffffffffffffffffffffffffffffffffffff1916827bffffffffffffffffffffffffffffffffffffffffffffffffffffffff19161480610420575061041f826106c3565b5b9050919050565b6000801b61043c816104376103a5565b61072d565b610445826107ca565b5050565b600060056000838152602001908152602001600020600101549050919050565b61047282610449565b6104838161047e6103a5565b61072d565b61048d8383610a32565b505050565b61049a6103a5565b73ffffffffffffffffffffffffffffffffffffffff168173ffffffffffffffffffffffffffffffffffffffff1614610507576040517f08c379a00000000000000000000000000000000000000000000000000000000081526004016104fe906114f9565b60405180910390fd5b6105118282610b13565b5050565b60008054905090565b60006004828154811061055a577f4e487b7100000000000000000000000000000000000000000000000000000000600052603260045260246000fd5b9060005260206000200160009054906101000a900473ffffffffffffffffffffffffffffffffffffffff169050919050565b60006005600084815260200190815260200160002060000160008373ffffffffffffffffffffffffffffffffffffffff1673ffffffffffffffffffffffffffffffffffffffff16815260200190815260200160002060009054906101000a900460ff16905092915050565b6000600360008373ffffffffffffffffffffffffffffffffffffffff1673ffffffffffffffffffffffffffffffffffffffff168152602001908152602001600020549050919050565b6000801b81565b6000600260008373ffffffffffffffffffffffffffffffffffffffff1673ffffffffffffffffffffffffffffffffffffffff168152602001908152602001600020549050919050565b61069982610449565b6106aa816106a56103a5565b61072d565b6106b48383610b13565b505050565b6000600154905090565b60007f01ffc9a7000000000000000000000000000000000000000000000000000000007bffffffffffffffffffffffffffffffffffffffffffffffffffffffff1916827bffffffffffffffffffffffffffffffffffffffffffffffffffffffff1916149050919050565b610737828261058c565b6107c65761075c8173ffffffffffffffffffffffffffffffffffffffff166014610bf5565b61076a8360001c6020610bf5565b60405160200161077b92919061135a565b6040516020818303038152906040526040517f08c379a00000000000000000000000000000000000000000000000000000000081526004016107bd9190611437565b60405180910390fd5b5050565b6000600260008373ffffffffffffffffffffffffffffffffffffffff1673ffffffffffffffffffffffffffffffffffffffff168152602001908152602001600020541161084c576040517f08c379a000000000000000000000000000000000000000000000000000000000815260040161084390611479565b60405180910390fd5b60006001544761085c9190611566565b90506000600360008473ffffffffffffffffffffffffffffffffffffffff1673ffffffffffffffffffffffffffffffffffffffff16815260200190815260200160002054600054600260008673ffffffffffffffffffffffffffffffffffffffff1673ffffffffffffffffffffffffffffffffffffffff16815260200190815260200160002054846108ee91906115ed565b6108f891906115bc565b6109029190611647565b90506000811415610948576040517f08c379a000000000000000000000000000000000000000000000000000000000815260040161093f906114d9565b60405180910390fd5b80600360008573ffffffffffffffffffffffffffffffffffffffff1673ffffffffffffffffffffffffffffffffffffffff168152602001908152602001600020546109939190611566565b600360008573ffffffffffffffffffffffffffffffffffffffff1673ffffffffffffffffffffffffffffffffffffffff16815260200190815260200160002081905550806001546109e49190611566565b6001819055506109f48382610eef565b7fdf20fd1e76bc69d672e4814fafb2c449bba3a5369d8359adf9e05e6fde87b0568382604051610a259291906113af565b60405180910390a1505050565b610a3c828261058c565b610b0f5760016005600084815260200190815260200160002060000160008373ffffffffffffffffffffffffffffffffffffffff1673ffffffffffffffffffffffffffffffffffffffff16815260200190815260200160002060006101000a81548160ff021916908315150217905550610ab46103a5565b73ffffffffffffffffffffffffffffffffffffffff168173ffffffffffffffffffffffffffffffffffffffff16837f2f8788117e7eff1d82e926ec794901d17c78024a50270940304540a733656f0d60405160405180910390a45b5050565b610b1d828261058c565b15610bf15760006005600084815260200190815260200160002060000160008373ffffffffffffffffffffffffffffffffffffffff1673ffffffffffffffffffffffffffffffffffffffff16815260200190815260200160002060006101000a81548160ff021916908315150217905550610b966103a5565b73ffffffffffffffffffffffffffffffffffffffff168173ffffffffffffffffffffffffffffffffffffffff16837ff6391f5c32d9c69d2a47ea670b442974b53935d1edc7fd64eb21e047a839171b60405160405180910390a45b5050565b606060006002836002610c0891906115ed565b610c129190611566565b67ffffffffffffffff811115610c51577f4e487b7100000000000000000000000000000000000000000000000000000000600052604160045260246000fd5b6040519080825280601f01601f191660200182016040528015610c835781602001600182028036833780820191505090505b5090507f300000000000000000000000000000000000000000000000000000000000000081600081518110610ce1577f4e487b7100000000000000000000000000000000000000000000000000000000600052603260045260246000fd5b60200101907effffffffffffffffffffffffffffffffffffffffffffffffffffffffffffff1916908160001a9053507f780000000000000000000000000000000000000000000000000000000000000081600181518110610d6b577f4e487b7100000000000000000000000000000000000000000000000000000000600052603260045260246000fd5b60200101907effffffffffffffffffffffffffffffffffffffffffffffffffffffffffffff1916908160001a90535060006001846002610dab91906115ed565b610db59190611566565b90505b6001811115610ea1577f3031323334353637383961626364656600000000000000000000000000000000600f861660108110610e1d577f4e487b7100000000000000000000000000000000000000000000000000000000600052603260045260246000fd5b1a60f81b828281518110610e5a577f4e487b7100000000000000000000000000000000000000000000000000000000600052603260045260246000fd5b60200101907effffffffffffffffffffffffffffffffffffffffffffffffffffffffffffff1916908160001a905350600485901c945080610e9a90611774565b9050610db8565b5060008414610ee5576040517f08c379a0000000000000000000000000000000000000000000000000000000008152600401610edc90611459565b60405180910390fd5b8091505092915050565b80471015610f32576040517f08c379a0000000000000000000000000000000000000000000000000000000008152600401610f29906114b9565b60405180910390fd5b60008273ffffffffffffffffffffffffffffffffffffffff1682604051610f5890611345565b60006040518083038185875af1925050503d8060008114610f95576040519150601f19603f3d011682016040523d82523d6000602084013e610f9a565b606091505b5050905080610fde576040517f08c379a0000000000000000000000000000000000000000000000000000000008152600401610fd590611499565b60405180910390fd5b505050565b600081359050610ff2816119f0565b92915050565b60008135905061100781611a07565b92915050565b60008135905061101c81611a1e565b92915050565b60008135905061103181611a35565b92915050565b60008135905061104681611a4c565b92915050565b60006020828403121561105e57600080fd5b600061106c84828501610fe3565b91505092915050565b60006020828403121561108757600080fd5b600061109584828501610ff8565b91505092915050565b6000602082840312156110b057600080fd5b60006110be8482850161100d565b91505092915050565b600080604083850312156110da57600080fd5b60006110e88582860161100d565b92505060206110f985828601610fe3565b9150509250929050565b60006020828403121561111557600080fd5b600061112384828501611022565b91505092915050565b60006020828403121561113e57600080fd5b600061114c84828501611037565b91505092915050565b61115e8161170b565b82525050565b61116d8161167b565b82525050565b61117c8161169f565b82525050565b61118b816116ab565b82525050565b600061119c82611534565b6111a6818561154a565b93506111b6818560208601611741565b6111bf816117fc565b840191505092915050565b60006111d582611534565b6111df818561155b565b93506111ef818560208601611741565b80840191505092915050565b600061120860208361154a565b91506112138261180d565b602082019050919050565b600061122b60268361154a565b915061123682611836565b604082019050919050565b600061124e603a8361154a565b915061125982611885565b604082019050919050565b6000611271601d8361154a565b915061127c826118d4565b602082019050919050565b6000611294602b8361154a565b915061129f826118fd565b604082019050919050565b60006112b760008361153f565b91506112c28261194c565b600082019050919050565b60006112da60178361155b565b91506112e58261194f565b601782019050919050565b60006112fd60118361155b565b915061130882611978565b601182019050919050565b6000611320602f8361154a565b915061132b826119a1565b604082019050919050565b61133f81611701565b82525050565b6000611350826112aa565b9150819050919050565b6000611365826112cd565b915061137182856111ca565b915061137c826112f0565b915061138882846111ca565b91508190509392505050565b60006020820190506113a96000830184611164565b92915050565b60006040820190506113c46000830185611155565b6113d16020830184611336565b9392505050565b60006040820190506113ed6000830185611164565b6113fa6020830184611336565b9392505050565b60006020820190506114166000830184611173565b92915050565b60006020820190506114316000830184611182565b92915050565b600060208201905081810360008301526114518184611191565b905092915050565b60006020820190508181036000830152611472816111fb565b9050919050565b600060208201905081810360008301526114928161121e565b9050919050565b600060208201905081810360008301526114b281611241565b9050919050565b600060208201905081810360008301526114d281611264565b9050919050565b600060208201905081810360008301526114f281611287565b9050919050565b6000602082019050818103600083015261151281611313565b9050919050565b600060208201905061152e6000830184611336565b92915050565b600081519050919050565b600081905092915050565b600082825260208201905092915050565b600081905092915050565b600061157182611701565b915061157c83611701565b9250827fffffffffffffffffffffffffffffffffffffffffffffffffffffffffffffffff038211156115b1576115b061179e565b5b828201905092915050565b60006115c782611701565b91506115d283611701565b9250826115e2576115e16117cd565b5b828204905092915050565b60006115f882611701565b915061160383611701565b9250817fffffffffffffffffffffffffffffffffffffffffffffffffffffffffffffffff048311821515161561163c5761163b61179e565b5b828202905092915050565b600061165282611701565b915061165d83611701565b9250828210156116705761166f61179e565b5b828203905092915050565b6000611686826116e1565b9050919050565b6000611698826116e1565b9050919050565b60008115159050919050565b6000819050919050565b60007fffffffff0000000000000000000000000000000000000000000000000000000082169050919050565b600073ffffffffffffffffffffffffffffffffffffffff82169050919050565b6000819050919050565b60006117168261171d565b9050919050565b60006117288261172f565b9050919050565b600061173a826116e1565b9050919050565b60005b8381101561175f578082015181840152602081019050611744565b8381111561176e576000848401525b50505050565b600061177f82611701565b915060008214156117935761179261179e565b5b600182039050919050565b7f4e487b7100000000000000000000000000000000000000000000000000000000600052601160045260246000fd5b7f4e487b7100000000000000000000000000000000000000000000000000000000600052601260045260246000fd5b6000601f19601f8301169050919050565b7f537472696e67733a20686578206c656e67746820696e73756666696369656e74600082015250565b7f5061796d656e7453706c69747465723a206163636f756e7420686173206e6f2060008201527f7368617265730000000000000000000000000000000000000000000000000000602082015250565b7f416464726573733a20756e61626c6520746f2073656e642076616c75652c207260008201527f6563697069656e74206d61792068617665207265766572746564000000000000602082015250565b7f416464726573733a20696e73756666696369656e742062616c616e6365000000600082015250565b7f5061796d656e7453706c69747465723a206163636f756e74206973206e6f742060008201527f647565207061796d656e74000000000000000000000000000000000000000000602082015250565b50565b7f416363657373436f6e74726f6c3a206163636f756e7420000000000000000000600082015250565b7f206973206d697373696e6720726f6c6520000000000000000000000000000000600082015250565b7f416363657373436f6e74726f6c3a2063616e206f6e6c792072656e6f756e636560008201527f20726f6c657320666f722073656c660000000000000000000000000000000000602082015250565b6119f98161167b565b8114611a0457600080fd5b50565b611a108161168d565b8114611a1b57600080fd5b50565b611a27816116ab565b8114611a3257600080fd5b50565b611a3e816116b5565b8114611a4957600080fd5b50565b611a5581611701565b8114611a6057600080fd5b5056fea2646970667358221220ce22140799e97046f6fc041f969c234a68273ecfb5a6e507b68aac8547a3a67b64736f6c63430008020033",
  "immutableReferences": {},
  "source": "// SPDX-License-Identifier: MIT\npragma solidity ^0.8.2;\n\nimport \"@openzeppelin/contracts/finance/PaymentSplitter.sol\";\nimport \"@openzeppelin/contracts/access/AccessControl.sol\";\n\ncontract Splitter is PaymentSplitter, AccessControl {\n    constructor(address[] memory _payees, uint256[] memory _shares)\n        PaymentSplitter(_payees, _shares)\n    {\n        for (uint8 i = 0; i < _payees.length; i++) {\n            _setupRole(DEFAULT_ADMIN_ROLE, _payees[i]);\n        }\n    }\n\n    /**\n     * @dev Triggers a transfer to `account` of the amount of Ether they are owed, according to their percentage of the\n     * total shares and their previous withdrawals.\n     */\n    function release(address payable account)\n        public\n        virtual\n        override\n        onlyRole(DEFAULT_ADMIN_ROLE)\n    {\n        super.release(account);\n    }\n}\n",
  "sourcePath": "/Users/tischlerkristof/MayIFit/Work/test/colibri/contracts/Splitter.sol",
  "compiler": {
    "name": "solc",
    "version": "0.8.2+commit.661d1103.Emscripten.clang"
  },
  "schemaVersion": "3.4.3",
  "updatedAt": "2021-10-28T21:56:30.492Z",
  "networkType": "ethereum",
  "devdoc": {
    "kind": "dev",
    "methods": {
      "getRoleAdmin(bytes32)": {
        "details": "Returns the admin role that controls `role`. See {grantRole} and {revokeRole}. To change a role's admin, use {_setRoleAdmin}."
      },
      "grantRole(bytes32,address)": {
        "details": "Grants `role` to `account`. If `account` had not been already granted `role`, emits a {RoleGranted} event. Requirements: - the caller must have ``role``'s admin role."
      },
      "hasRole(bytes32,address)": {
        "details": "Returns `true` if `account` has been granted `role`."
      },
      "payee(uint256)": {
        "details": "Getter for the address of the payee number `index`."
      },
      "release(address)": {
        "details": "Triggers a transfer to `account` of the amount of Ether they are owed, according to their percentage of the total shares and their previous withdrawals."
      },
      "released(address)": {
        "details": "Getter for the amount of Ether already released to a payee."
      },
      "renounceRole(bytes32,address)": {
        "details": "Revokes `role` from the calling account. Roles are often managed via {grantRole} and {revokeRole}: this function's purpose is to provide a mechanism for accounts to lose their privileges if they are compromised (such as when a trusted device is misplaced). If the calling account had been granted `role`, emits a {RoleRevoked} event. Requirements: - the caller must be `account`."
      },
      "revokeRole(bytes32,address)": {
        "details": "Revokes `role` from `account`. If `account` had been granted `role`, emits a {RoleRevoked} event. Requirements: - the caller must have ``role``'s admin role."
      },
      "shares(address)": {
        "details": "Getter for the amount of shares held by an account."
      },
      "supportsInterface(bytes4)": {
        "details": "See {IERC165-supportsInterface}."
      },
      "totalReleased()": {
        "details": "Getter for the total amount of Ether already released."
      },
      "totalShares()": {
        "details": "Getter for the total shares held by payees."
      }
    },
    "version": 1
  },
  "userdoc": {
    "kind": "user",
    "methods": {},
    "version": 1
  }
}