{
  "contractName": "TimedCrowdsale",
  "abi": [
    {
      "inputs": [
        {
          "internalType": "uint8",
          "name": "decimals_",
          "type": "uint8"
        },
        {
          "internalType": "uint256[3][]",
          "name": "rates_",
          "type": "uint256[3][]"
        },
        {
          "internalType": "address payable",
          "name": "wallet_",
          "type": "address"
        },
        {
          "internalType": "contract IERC20",
          "name": "token_",
          "type": "address"
        }
      ],
      "stateMutability": "nonpayable",
      "type": "constructor"
    },
    {
      "anonymous": false,
      "inputs": [
        {
          "indexed": true,
          "internalType": "address",
          "name": "purchaser",
          "type": "address"
        },
        {
          "indexed": true,
          "internalType": "address",
          "name": "beneficiary",
          "type": "address"
        },
        {
          "indexed": false,
          "internalType": "uint256",
          "name": "value",
          "type": "uint256"
        },
        {
          "indexed": false,
          "internalType": "uint256",
          "name": "amount",
          "type": "uint256"
        }
      ],
      "name": "TokensPurchased",
      "type": "event"
    },
    {
      "inputs": [
        {
          "internalType": "address",
          "name": "beneficiary",
          "type": "address"
        }
      ],
      "name": "buyTokens",
      "outputs": [],
      "stateMutability": "payable",
      "type": "function"
    },
    {
      "inputs": [],
      "name": "rate",
      "outputs": [
        {
          "internalType": "uint256",
          "name": "",
          "type": "uint256"
        }
      ],
      "stateMutability": "view",
      "type": "function"
    },
    {
      "inputs": [],
      "name": "token",
      "outputs": [
        {
          "internalType": "contract IERC20",
          "name": "",
          "type": "address"
        }
      ],
      "stateMutability": "view",
      "type": "function"
    },
    {
      "inputs": [],
      "name": "wallet",
      "outputs": [
        {
          "internalType": "address payable",
          "name": "",
          "type": "address"
        }
      ],
      "stateMutability": "view",
      "type": "function"
    },
    {
      "inputs": [],
      "name": "weiRaised",
      "outputs": [
        {
          "internalType": "uint256",
          "name": "",
          "type": "uint256"
        }
      ],
      "stateMutability": "view",
      "type": "function"
    },
    {
      "stateMutability": "payable",
      "type": "receive"
    },
    {
      "inputs": [],
      "name": "getCurrentRate",
      "outputs": [
        {
          "internalType": "uint256",
          "name": "",
          "type": "uint256"
        }
      ],
      "stateMutability": "view",
      "type": "function"
    },
    {
      "inputs": [],
      "name": "getCurrentOpenTime",
      "outputs": [
        {
          "internalType": "uint256",
          "name": "",
          "type": "uint256"
        }
      ],
      "stateMutability": "view",
      "type": "function"
    },
    {
      "inputs": [],
      "name": "getCurrentCloseTime",
      "outputs": [
        {
          "internalType": "uint256",
          "name": "",
          "type": "uint256"
        }
      ],
      "stateMutability": "view",
      "type": "function"
    },
    {
      "inputs": [],
      "name": "getRates",
      "outputs": [
        {
          "internalType": "uint256[3][]",
          "name": "",
          "type": "uint256[3][]"
        }
      ],
      "stateMutability": "view",
      "type": "function"
    },
    {
      "inputs": [],
      "name": "isOpen",
      "outputs": [
        {
          "internalType": "bool",
          "name": "",
          "type": "bool"
        }
      ],
      "stateMutability": "view",
      "type": "function"
    },
    {
      "inputs": [],
      "name": "hasClosed",
      "outputs": [
        {
          "internalType": "bool",
          "name": "",
          "type": "bool"
        }
      ],
      "stateMutability": "view",
      "type": "function"
    },
    {
      "inputs": [],
      "name": "hasFinalClosed",
      "outputs": [
        {
          "internalType": "bool",
          "name": "",
          "type": "bool"
        }
      ],
      "stateMutability": "view",
      "type": "function"
    }
  ],
  "bytecode": "0x60806040523480156200001157600080fd5b506040516200234338038062002343833981810160405281019062000037919062000553565b8260008151811062000072577f4e487b7100000000000000000000000000000000000000000000000000000000600052603260045260246000fd5b6020026020010151600060038110620000b4577f4e487b7100000000000000000000000000000000000000000000000000000000600052603260045260246000fd5b6020020151828260016000819055506000831162000109576040517f08c379a000000000000000000000000000000000000000000000000000000000815260040162000100906200066f565b60405180910390fd5b600073ffffffffffffffffffffffffffffffffffffffff168273ffffffffffffffffffffffffffffffffffffffff1614156200017c576040517f08c379a0000000000000000000000000000000000000000000000000000000008152600401620001739062000691565b60405180910390fd5b600073ffffffffffffffffffffffffffffffffffffffff168173ffffffffffffffffffffffffffffffffffffffff161415620001ef576040517f08c379a0000000000000000000000000000000000000000000000000000000008152600401620001e6906200064d565b60405180910390fd5b8260038190555081600260006101000a81548173ffffffffffffffffffffffffffffffffffffffff021916908373ffffffffffffffffffffffffffffffffffffffff16021790555080600160006101000a81548173ffffffffffffffffffffffffffffffffffffffff021916908373ffffffffffffffffffffffffffffffffffffffff160217905550505050826005908051906020019062000293929190620002b9565b5083600660006101000a81548160ff021916908360ff160217905550505050506200095d565b8280548282559060005260206000209060030281019282156200030b579160200282015b828111156200030a57825182906003620002f99291906200031e565b5091602001919060030190620002dd565b5b5090506200031a919062000363565b5090565b826003810192821562000350579160200282015b828111156200034f57825182559160200191906001019062000332565b5b5090506200035f91906200038b565b5090565b5b808211156200038757600081816200037d9190620003aa565b5060030162000364565b5090565b5b80821115620003a65760008160009055506001016200038c565b5090565b50600081556001016000815560010160009055565b6000620003d6620003d084620006dc565b620006b3565b90508083825260208201905082856060860282011115620003f657600080fd5b60005b858110156200042a57816200040f8882620004e4565b845260208401935060608301925050600181019050620003f9565b5050509392505050565b60006200044b62000445846200070b565b620006b3565b905080828560208602820111156200046257600080fd5b60005b858110156200049657816200047b888262000525565b84526020840193506020830192505060018101905062000465565b5050509392505050565b600081519050620004b181620008f5565b92915050565b600082601f830112620004c957600080fd5b8151620004db848260208601620003bf565b91505092915050565b600082601f830112620004f657600080fd5b60036200050584828562000434565b91505092915050565b6000815190506200051f816200090f565b92915050565b600081519050620005368162000929565b92915050565b6000815190506200054d8162000943565b92915050565b600080600080608085870312156200056a57600080fd5b60006200057a878288016200053c565b945050602085015167ffffffffffffffff8111156200059857600080fd5b620005a687828801620004b7565b9350506040620005b987828801620004a0565b9250506060620005cc878288016200050e565b91505092959194509250565b6000620005e760248362000734565b9150620005f4826200082e565b604082019050919050565b60006200060e60148362000734565b91506200061b826200087d565b602082019050919050565b60006200063560258362000734565b91506200064282620008a6565b604082019050919050565b600060208201905081810360008301526200066881620005d8565b9050919050565b600060208201905081810360008301526200068a81620005ff565b9050919050565b60006020820190508181036000830152620006ac8162000626565b9050919050565b6000620006bf620006d2565b9050620006cd8282620007b8565b919050565b6000604051905090565b600067ffffffffffffffff821115620006fa57620006f9620007ee565b5b602082029050602081019050919050565b600067ffffffffffffffff821115620007295762000728620007ee565b5b602082029050919050565b600082825260208201905092915050565b6000620007528262000781565b9050919050565b6000620007668262000781565b9050919050565b60006200077a8262000745565b9050919050565b600073ffffffffffffffffffffffffffffffffffffffff82169050919050565b6000819050919050565b600060ff82169050919050565b620007c3826200081d565b810181811067ffffffffffffffff82111715620007e557620007e4620007ee565b5b80604052505050565b7f4e487b7100000000000000000000000000000000000000000000000000000000600052604160045260246000fd5b6000601f19601f8301169050919050565b7f43726f776473616c653a20746f6b656e20697320746865207a65726f2061646460008201527f7265737300000000000000000000000000000000000000000000000000000000602082015250565b7f43726f776473616c653a20726174652069732030000000000000000000000000600082015250565b7f43726f776473616c653a2077616c6c657420697320746865207a65726f20616460008201527f6472657373000000000000000000000000000000000000000000000000000000602082015250565b620009008162000759565b81146200090c57600080fd5b50565b6200091a816200076d565b81146200092657600080fd5b50565b6200093481620007a1565b81146200094057600080fd5b50565b6200094e81620007ab565b81146200095a57600080fd5b50565b6119d6806200096d6000396000f3fe6080604052600436106100ab5760003560e01c80639accab55116100645780639accab55146101c9578063bd0fd219146101f4578063e72fbe7e1461021f578063ec8ac4d81461024a578063f7fb07b014610266578063fc0c546a14610291576100c2565b80631515bc2b146100c75780632c4e722e146100f25780634042b66f1461011d57806347535d7b1461014857806347a7b1a514610173578063521eb2731461019e576100c2565b366100c2576100c06100bb6102bc565b6102c4565b005b600080fd5b3480156100d357600080fd5b506100dc6103ea565b6040516100e99190611348565b60405180910390f35b3480156100fe57600080fd5b506101076103fb565b604051610114919061141e565b60405180910390f35b34801561012957600080fd5b50610132610405565b60405161013f919061141e565b60405180910390f35b34801561015457600080fd5b5061015d61040f565b60405161016a9190611348565b60405180910390f35b34801561017f57600080fd5b50610188610434565b604051610195919061141e565b60405180910390f35b3480156101aa57600080fd5b506101b36106e1565b6040516101c091906112e2565b60405180910390f35b3480156101d557600080fd5b506101de61070b565b6040516101eb9190611326565b60405180910390f35b34801561020057600080fd5b5061020961079b565b6040516102169190611348565b60405180910390f35b34801561022b57600080fd5b50610234610838565b604051610241919061141e565b60405180910390f35b610264600480360381019061025f91906110a2565b6102c4565b005b34801561027257600080fd5b5061027b610ae5565b604051610288919061141e565b60405180910390f35b34801561029d57600080fd5b506102a6610d92565b6040516102b39190611363565b60405180910390f35b600033905090565b6002600054141561030a576040517f08c379a0000000000000000000000000000000000000000000000000000000008152600401610301906113de565b60405180910390fd5b600260008190555060003490506103218282610dbc565b600061032c82610e11565b905061034382600454610e5f90919063ffffffff16565b6004819055506103538382610e75565b8273ffffffffffffffffffffffffffffffffffffffff166103726102bc565b73ffffffffffffffffffffffffffffffffffffffff167f6faf93231a456e552dbc9961f58d9713ee4f2e69d15f1975b050ef0911053a7b84846040516103b9929190611439565b60405180910390a36103cb8383610e83565b6103d3610e87565b6103dd8383610ef2565b5050600160008190555050565b60006103f4610434565b4211905090565b6000600354905090565b6000600454905090565b6000610419610838565b421015801561042f575061042b610434565b4211155b905090565b6000806005805490501161047d576040517f08c379a00000000000000000000000000000000000000000000000000000000081526004016104749061139e565b60405180910390fd5b6000429050600060056000815481106104bf577f4e487b7100000000000000000000000000000000000000000000000000000000600052603260045260246000fd5b9060005260206000209060030201600260038110610506577f4e487b7100000000000000000000000000000000000000000000000000000000600052603260045260246000fd5b0154905060005b6005805490508160ff1610156106d85760058160ff168154811061055a577f4e487b7100000000000000000000000000000000000000000000000000000000600052603260045260246000fd5b90600052602060002090600302016001600381106105a1577f4e487b7100000000000000000000000000000000000000000000000000000000600052603260045260246000fd5b01548310158015610637575060058160ff16815481106105ea577f4e487b7100000000000000000000000000000000000000000000000000000000600052603260045260246000fd5b9060005260206000209060030201600260038110610631577f4e487b7100000000000000000000000000000000000000000000000000000000600052603260045260246000fd5b01548311155b156106c55760058160ff1681548110610679577f4e487b7100000000000000000000000000000000000000000000000000000000600052603260045260246000fd5b90600052602060002090600302016002600381106106c0577f4e487b7100000000000000000000000000000000000000000000000000000000600052603260045260246000fd5b015491505b80806106d0906117ea565b91505061050d565b50809250505090565b6000600260009054906101000a900473ffffffffffffffffffffffffffffffffffffffff16905090565b60606005805480602002602001604051908101604052809291908181526020016000905b82821015610792578382906000526020600020906003020160038060200260405190810160405280929190826003801561077e576020028201915b81548152602001906001019080831161076a575b50505050508152602001906001019061072f565b50505050905090565b6000600560016005805490506107b1919061172b565b815481106107e8577f4e487b7100000000000000000000000000000000000000000000000000000000600052603260045260246000fd5b906000526020600020906003020160026003811061082f577f4e487b7100000000000000000000000000000000000000000000000000000000600052603260045260246000fd5b01544211905090565b60008060058054905011610881576040517f08c379a00000000000000000000000000000000000000000000000000000000081526004016108789061139e565b60405180910390fd5b6000429050600060056000815481106108c3577f4e487b7100000000000000000000000000000000000000000000000000000000600052603260045260246000fd5b906000526020600020906003020160016003811061090a577f4e487b7100000000000000000000000000000000000000000000000000000000600052603260045260246000fd5b0154905060005b6005805490508160ff161015610adc5760058160ff168154811061095e577f4e487b7100000000000000000000000000000000000000000000000000000000600052603260045260246000fd5b90600052602060002090600302016001600381106109a5577f4e487b7100000000000000000000000000000000000000000000000000000000600052603260045260246000fd5b01548310158015610a3b575060058160ff16815481106109ee577f4e487b7100000000000000000000000000000000000000000000000000000000600052603260045260246000fd5b9060005260206000209060030201600260038110610a35577f4e487b7100000000000000000000000000000000000000000000000000000000600052603260045260246000fd5b01548311155b15610ac95760058160ff1681548110610a7d577f4e487b7100000000000000000000000000000000000000000000000000000000600052603260045260246000fd5b9060005260206000209060030201600160038110610ac4577f4e487b7100000000000000000000000000000000000000000000000000000000600052603260045260246000fd5b015491505b8080610ad4906117ea565b915050610911565b50809250505090565b60008060058054905011610b2e576040517f08c379a0000000000000000000000000000000000000000000000000000000008152600401610b259061139e565b60405180910390fd5b600042905060006005600081548110610b70577f4e487b7100000000000000000000000000000000000000000000000000000000600052603260045260246000fd5b9060005260206000209060030201600060038110610bb7577f4e487b7100000000000000000000000000000000000000000000000000000000600052603260045260246000fd5b0154905060005b6005805490508160ff161015610d895760058160ff1681548110610c0b577f4e487b7100000000000000000000000000000000000000000000000000000000600052603260045260246000fd5b9060005260206000209060030201600160038110610c52577f4e487b7100000000000000000000000000000000000000000000000000000000600052603260045260246000fd5b01548310158015610ce8575060058160ff1681548110610c9b577f4e487b7100000000000000000000000000000000000000000000000000000000600052603260045260246000fd5b9060005260206000209060030201600260038110610ce2577f4e487b7100000000000000000000000000000000000000000000000000000000600052603260045260246000fd5b01548311155b15610d765760058160ff1681548110610d2a577f4e487b7100000000000000000000000000000000000000000000000000000000600052603260045260246000fd5b9060005260206000209060030201600060038110610d71577f4e487b7100000000000000000000000000000000000000000000000000000000600052603260045260246000fd5b015491505b8080610d81906117ea565b915050610bbe565b50809250505090565b6000600160009054906101000a900473ffffffffffffffffffffffffffffffffffffffff16905090565b610dc461040f565b610e03576040517f08c379a0000000000000000000000000000000000000000000000000000000008152600401610dfa9061137e565b60405180910390fd5b610e0d8282610ef6565b5050565b600080610e1c610ae5565b9050600660009054906101000a900460ff16600a610e3a91906115b3565b610e4d8285610fae90919063ffffffff16565b610e5791906116d1565b915050919050565b60008183610e6d91906114d9565b905092915050565b610e7f8282610fc4565b5050565b5050565b600260009054906101000a900473ffffffffffffffffffffffffffffffffffffffff1673ffffffffffffffffffffffffffffffffffffffff166108fc349081150290604051600060405180830381858888f19350505050158015610eef573d6000803e3d6000fd5b50565b5050565b600073ffffffffffffffffffffffffffffffffffffffff168273ffffffffffffffffffffffffffffffffffffffff161415610f66576040517f08c379a0000000000000000000000000000000000000000000000000000000008152600401610f5d906113be565b60405180910390fd5b6000811415610faa576040517f08c379a0000000000000000000000000000000000000000000000000000000008152600401610fa1906113fe565b60405180910390fd5b5050565b60008183610fbc919061152f565b905092915050565b600160009054906101000a900473ffffffffffffffffffffffffffffffffffffffff1673ffffffffffffffffffffffffffffffffffffffff1663a9059cbb83836040518363ffffffff1660e01b81526004016110219291906112fd565b602060405180830381600087803b15801561103b57600080fd5b505af115801561104f573d6000803e3d6000fd5b505050506040513d601f19601f8201168201806040525081019061107391906110cb565b505050565b60008135905061108781611972565b92915050565b60008151905061109c81611989565b92915050565b6000602082840312156110b457600080fd5b60006110c284828501611078565b91505092915050565b6000602082840312156110dd57600080fd5b60006110eb8482850161108d565b91505092915050565b600061110083836111a0565b60608301905092915050565b600061111883836112c4565b60208301905092915050565b61112d81611771565b82525050565b61113c8161175f565b82525050565b600061114d8261147c565b61115781856114ac565b935061116283611462565b8060005b8381101561119357815161117a88826110f4565b975061118583611492565b925050600181019050611166565b5085935050505092915050565b6111a981611487565b6111b381846114bd565b92506111be82611472565b8060005b838110156111ef5781516111d6878261110c565b96506111e18361149f565b9250506001810190506111c2565b505050505050565b61120081611783565b82525050565b61120f816117c6565b82525050565b60006112226018836114c8565b915061122d8261187f565b602082019050919050565b6000611245600c836114c8565b9150611250826118a8565b602082019050919050565b6000611268602a836114c8565b9150611273826118d1565b604082019050919050565b600061128b601f836114c8565b915061129682611920565b602082019050919050565b60006112ae6019836114c8565b91506112b982611949565b602082019050919050565b6112cd816117af565b82525050565b6112dc816117af565b82525050565b60006020820190506112f76000830184611124565b92915050565b60006040820190506113126000830185611133565b61131f60208301846112d3565b9392505050565b600060208201905081810360008301526113408184611142565b905092915050565b600060208201905061135d60008301846111f7565b92915050565b60006020820190506113786000830184611206565b92915050565b6000602082019050818103600083015261139781611215565b9050919050565b600060208201905081810360008301526113b781611238565b9050919050565b600060208201905081810360008301526113d78161125b565b9050919050565b600060208201905081810360008301526113f78161127e565b9050919050565b60006020820190508181036000830152611417816112a1565b9050919050565b600060208201905061143360008301846112d3565b92915050565b600060408201905061144e60008301856112d3565b61145b60208301846112d3565b9392505050565b6000819050602082019050919050565b6000819050919050565b600081519050919050565b600060039050919050565b6000602082019050919050565b6000602082019050919050565b600082825260208201905092915050565b600081905092915050565b600082825260208201905092915050565b60006114e4826117af565b91506114ef836117af565b9250827fffffffffffffffffffffffffffffffffffffffffffffffffffffffffffffffff0382111561152457611523611814565b5b828201905092915050565b600061153a826117af565b9150611545836117af565b92508261155557611554611843565b5b828204905092915050565b6000808291508390505b60018511156115aa5780860481111561158657611585611814565b5b60018516156115955780820291505b80810290506115a385611872565b945061156a565b94509492505050565b60006115be826117af565b91506115c9836117b9565b92506115f67fffffffffffffffffffffffffffffffffffffffffffffffffffffffffffffffff84846115fe565b905092915050565b60008261160e57600190506116ca565b8161161c57600090506116ca565b8160018114611632576002811461163c5761166b565b60019150506116ca565b60ff84111561164e5761164d611814565b5b8360020a91508482111561166557611664611814565b5b506116ca565b5060208310610133831016604e8410600b84101617156116a05782820a90508381111561169b5761169a611814565b5b6116ca565b6116ad8484846001611560565b925090508184048111156116c4576116c3611814565b5b81810290505b9392505050565b60006116dc826117af565b91506116e7836117af565b9250817fffffffffffffffffffffffffffffffffffffffffffffffffffffffffffffffff04831182151516156117205761171f611814565b5b828202905092915050565b6000611736826117af565b9150611741836117af565b92508282101561175457611753611814565b5b828203905092915050565b600061176a8261178f565b9050919050565b600061177c8261178f565b9050919050565b60008115159050919050565b600073ffffffffffffffffffffffffffffffffffffffff82169050919050565b6000819050919050565b600060ff82169050919050565b60006117d1826117d8565b9050919050565b60006117e38261178f565b9050919050565b60006117f5826117b9565b915060ff82141561180957611808611814565b5b600182019050919050565b7f4e487b7100000000000000000000000000000000000000000000000000000000600052601160045260246000fd5b7f4e487b7100000000000000000000000000000000000000000000000000000000600052601260045260246000fd5b60008160011c9050919050565b7f54696d656443726f776473616c653a206e6f74206f70656e0000000000000000600082015250565b7f5261746573206c656e6774680000000000000000000000000000000000000000600082015250565b7f43726f776473616c653a2062656e656669636961727920697320746865207a6560008201527f726f206164647265737300000000000000000000000000000000000000000000602082015250565b7f5265656e7472616e637947756172643a207265656e7472616e742063616c6c00600082015250565b7f43726f776473616c653a20776569416d6f756e74206973203000000000000000600082015250565b61197b8161175f565b811461198657600080fd5b50565b61199281611783565b811461199d57600080fd5b5056fea2646970667358221220f906adc493932aa8b42915d664418352efd32f80d58b10f9a23a37b748cfc8c164736f6c63430008020033",
  "immutableReferences": {},
  "source": "// SPDX-License-Identifier: MIT\npragma solidity ^0.8.2;\n\nimport \"@openzeppelin/contracts/utils/math/SafeMath.sol\";\nimport \"./Crowdsale.sol\";\n\n/**\n * @title TimedCrowdsale\n * @dev Crowdsale accepting contributions only within a time frame.\n */\ncontract TimedCrowdsale is Crowdsale {\n    using SafeMath for uint256;\n\n    uint256[3][] private _rates;\n    uint8 private _decimals;\n\n    /**\n     * @dev Reverts if not in crowdsale time range.\n     */\n    modifier onlyWhileOpen() {\n        require(isOpen(), \"TimedCrowdsale: not open\");\n        _;\n    }\n\n    /**\n     * @dev Constructor, takes crowdsale opening and closing times.\n     * @dev The length of the rates (elements in the array) should not\n     * be too high as iterating over huge arrays can cause out of gas exceptions.\n     * @param decimals_ Crowdsale rates\n     * @param rates_ Crowdsale rates\n     * @param wallet_ Crowdsale wallet\n     * @param token_ Crowdsale token\n     */\n    constructor(\n        uint8 decimals_,\n        uint256[3][] memory rates_,\n        address payable wallet_,\n        IERC20 token_\n    ) Crowdsale(rates_[0][0], wallet_, token_) {\n        _rates = rates_;\n        _decimals = decimals_;\n    }\n\n    /**\n     * @dev Returns the rate of tokens per wei at the present time.\n     * @return The number of tokens a buyer gets per wei at a given time\n     */\n    function getCurrentRate() public view virtual returns (uint256) {\n        require(_rates.length > 0, \"Rates length\");\n\n        // solhint-disable-next-line not-rely-on-time\n        uint256 currentTime = block.timestamp;\n        uint256 currentRate = _rates[0][0];\n        for (uint8 i = 0; i < _rates.length; i++) {\n            if (currentTime >= _rates[i][1] && currentTime <= _rates[i][2]) {\n                currentRate = _rates[i][0];\n            }\n        }\n\n        return currentRate;\n    }\n\n    function getCurrentOpenTime() public view virtual returns (uint256) {\n        require(_rates.length > 0, \"Rates length\");\n\n        // solhint-disable-next-line not-rely-on-time\n        uint256 currentTime = block.timestamp;\n        uint256 openTime = _rates[0][1];\n        for (uint8 i = 0; i < _rates.length; i++) {\n            if (currentTime >= _rates[i][1] && currentTime <= _rates[i][2]) {\n                openTime = _rates[i][1];\n            }\n        }\n\n        return openTime;\n    }\n\n    function getCurrentCloseTime() public view virtual returns (uint256) {\n        require(_rates.length > 0, \"Rates length\");\n\n        // solhint-disable-next-line not-rely-on-time\n        uint256 currentTime = block.timestamp;\n        uint256 closeTime = _rates[0][2];\n        for (uint8 i = 0; i < _rates.length; i++) {\n            if (currentTime >= _rates[i][1] && currentTime <= _rates[i][2]) {\n                closeTime = _rates[i][2];\n            }\n        }\n\n        return closeTime;\n    }\n\n    function getRates() public view virtual returns (uint256[3][] memory) {\n        return _rates;\n    }\n\n    /**\n     * @dev Overrides parent method taking into account variable rate.\n     * @param weiAmount The value in wei to be converted into tokens\n     * @return The number of tokens _weiAmount wei will buy at present time\n     */\n    function _getTokenAmount(uint256 weiAmount)\n        internal\n        view\n        override\n        returns (uint256)\n    {\n        uint256 currentRate = getCurrentRate();\n        return weiAmount.div(currentRate) * 10**_decimals;\n    }\n\n    /**\n     * @return true if the crowdsale is open, false otherwise.\n     */\n    function isOpen() public view virtual returns (bool) {\n        // solhint-disable-next-line not-rely-on-time\n        return\n            block.timestamp >= getCurrentOpenTime() &&\n            block.timestamp <= getCurrentCloseTime();\n    }\n\n    /**\n     * @dev Checks whether the period in which the crowdsale is open has already elapsed.\n     * @return Whether crowdsale period has elapsed\n     */\n    function hasClosed() public view returns (bool) {\n        // solhint-disable-next-line not-rely-on-time\n        return block.timestamp > getCurrentCloseTime();\n    }\n\n    /**\n     * @dev Checks whether the final period in which the crowdsale is open has already elapsed.\n     * @return Whether crowdsale final period has elapsed\n     */\n    function hasFinalClosed() public view returns (bool) {\n        return block.timestamp > _rates[_rates.length - 1][2];\n    }\n\n    /**\n     * @dev Extend parent behavior requiring to be within contributing period.\n     * @param beneficiary Token purchaser\n     * @param weiAmount Amount of wei contributed\n     */\n    function _preValidatePurchase(address beneficiary, uint256 weiAmount)\n        internal\n        view\n        override\n        onlyWhileOpen\n    {\n        super._preValidatePurchase(beneficiary, weiAmount);\n    }\n}\n",
  "sourcePath": "/Users/tischlerkristof/MayIFit/Work/test/colibri/contracts/helpers/TimedCrowdsale.sol",
  "compiler": {
    "name": "solc",
    "version": "0.8.2+commit.661d1103.Emscripten.clang"
  },
  "schemaVersion": "3.4.3",
  "updatedAt": "2021-10-28T10:37:35.025Z",
  "devdoc": {
    "details": "Crowdsale accepting contributions only within a time frame.",
    "kind": "dev",
    "methods": {
      "buyTokens(address)": {
        "details": "low level token purchase ***DO NOT OVERRIDE*** This function has a non-reentrancy guard, so it shouldn't be called by another `nonReentrant` function.",
        "params": {
          "beneficiary": "Recipient of the token purchase"
        }
      },
      "constructor": {
        "details": "Constructor, takes crowdsale opening and closing times.The length of the rates (elements in the array) should not be too high as iterating over huge arrays can cause out of gas exceptions.",
        "params": {
          "decimals_": "Crowdsale rates",
          "rates_": "Crowdsale rates",
          "token_": "Crowdsale token",
          "wallet_": "Crowdsale wallet"
        }
      },
      "getCurrentRate()": {
        "details": "Returns the rate of tokens per wei at the present time.",
        "returns": {
          "_0": "The number of tokens a buyer gets per wei at a given time"
        }
      },
      "hasClosed()": {
        "details": "Checks whether the period in which the crowdsale is open has already elapsed.",
        "returns": {
          "_0": "Whether crowdsale period has elapsed"
        }
      },
      "hasFinalClosed()": {
        "details": "Checks whether the final period in which the crowdsale is open has already elapsed.",
        "returns": {
          "_0": "Whether crowdsale final period has elapsed"
        }
      },
      "isOpen()": {
        "returns": {
          "_0": "true if the crowdsale is open, false otherwise."
        }
      },
      "rate()": {
        "returns": {
          "_0": "the number of token units a buyer gets per wei."
        }
      },
      "token()": {
        "returns": {
          "_0": "the token being sold."
        }
      },
      "wallet()": {
        "returns": {
          "_0": "the address where funds are collected."
        }
      },
      "weiRaised()": {
        "returns": {
          "_0": "the amount of wei raised."
        }
      }
    },
    "title": "TimedCrowdsale",
    "version": 1
  },
  "userdoc": {
    "events": {
      "TokensPurchased(address,address,uint256,uint256)": {
        "notice": "Event for token purchase logging"
      }
    },
    "kind": "user",
    "methods": {},
    "version": 1
  }
}