{
  "contractName": "TokenSale",
  "abi": [
    {
      "inputs": [
        {
          "internalType": "uint8",
          "name": "decimals_",
          "type": "uint8"
        },
        {
          "internalType": "uint256[3][]",
          "name": "rates_",
          "type": "uint256[3][]"
        },
        {
          "internalType": "address",
          "name": "wallet_",
          "type": "address"
        },
        {
          "internalType": "contract IERC20",
          "name": "token_",
          "type": "address"
        }
      ],
      "stateMutability": "nonpayable",
      "type": "constructor"
    },
    {
      "anonymous": false,
      "inputs": [
        {
          "indexed": false,
          "internalType": "string",
          "name": "description",
          "type": "string"
        },
        {
          "indexed": true,
          "internalType": "address",
          "name": "_from",
          "type": "address"
        },
        {
          "indexed": false,
          "internalType": "uint256",
          "name": "_n",
          "type": "uint256"
        }
      ],
      "name": "TokenPurchased",
      "type": "event"
    },
    {
      "anonymous": false,
      "inputs": [
        {
          "indexed": false,
          "internalType": "string",
          "name": "description",
          "type": "string"
        },
        {
          "indexed": true,
          "internalType": "address",
          "name": "_to",
          "type": "address"
        },
        {
          "indexed": false,
          "internalType": "uint256",
          "name": "_n",
          "type": "uint256"
        }
      ],
      "name": "TokenWithdrawn",
      "type": "event"
    },
    {
      "anonymous": false,
      "inputs": [
        {
          "indexed": true,
          "internalType": "address",
          "name": "purchaser",
          "type": "address"
        },
        {
          "indexed": true,
          "internalType": "address",
          "name": "beneficiary",
          "type": "address"
        },
        {
          "indexed": false,
          "internalType": "uint256",
          "name": "value",
          "type": "uint256"
        },
        {
          "indexed": false,
          "internalType": "uint256",
          "name": "amount",
          "type": "uint256"
        }
      ],
      "name": "TokensPurchased",
      "type": "event"
    },
    {
      "inputs": [
        {
          "internalType": "address",
          "name": "account",
          "type": "address"
        }
      ],
      "name": "balanceOf",
      "outputs": [
        {
          "internalType": "uint256",
          "name": "",
          "type": "uint256"
        }
      ],
      "stateMutability": "view",
      "type": "function",
      "constant": true
    },
    {
      "inputs": [
        {
          "internalType": "address",
          "name": "beneficiary",
          "type": "address"
        }
      ],
      "name": "buyTokens",
      "outputs": [],
      "stateMutability": "payable",
      "type": "function",
      "payable": true
    },
    {
      "inputs": [],
      "name": "getCurrentCloseTime",
      "outputs": [
        {
          "internalType": "uint256",
          "name": "",
          "type": "uint256"
        }
      ],
      "stateMutability": "view",
      "type": "function",
      "constant": true
    },
    {
      "inputs": [],
      "name": "getCurrentOpenTime",
      "outputs": [
        {
          "internalType": "uint256",
          "name": "",
          "type": "uint256"
        }
      ],
      "stateMutability": "view",
      "type": "function",
      "constant": true
    },
    {
      "inputs": [],
      "name": "getCurrentRate",
      "outputs": [
        {
          "internalType": "uint256",
          "name": "",
          "type": "uint256"
        }
      ],
      "stateMutability": "view",
      "type": "function",
      "constant": true
    },
    {
      "inputs": [],
      "name": "getRates",
      "outputs": [
        {
          "internalType": "uint256[3][]",
          "name": "",
          "type": "uint256[3][]"
        }
      ],
      "stateMutability": "view",
      "type": "function",
      "constant": true
    },
    {
      "inputs": [],
      "name": "hasClosed",
      "outputs": [
        {
          "internalType": "bool",
          "name": "",
          "type": "bool"
        }
      ],
      "stateMutability": "view",
      "type": "function",
      "constant": true
    },
    {
      "inputs": [],
      "name": "hasFinalClosed",
      "outputs": [
        {
          "internalType": "bool",
          "name": "",
          "type": "bool"
        }
      ],
      "stateMutability": "view",
      "type": "function",
      "constant": true
    },
    {
      "inputs": [],
      "name": "isOpen",
      "outputs": [
        {
          "internalType": "bool",
          "name": "",
          "type": "bool"
        }
      ],
      "stateMutability": "view",
      "type": "function",
      "constant": true
    },
    {
      "inputs": [],
      "name": "rate",
      "outputs": [
        {
          "internalType": "uint256",
          "name": "",
          "type": "uint256"
        }
      ],
      "stateMutability": "view",
      "type": "function",
      "constant": true
    },
    {
      "inputs": [],
      "name": "token",
      "outputs": [
        {
          "internalType": "contract IERC20",
          "name": "",
          "type": "address"
        }
      ],
      "stateMutability": "view",
      "type": "function",
      "constant": true
    },
    {
      "inputs": [],
      "name": "wallet",
      "outputs": [
        {
          "internalType": "address payable",
          "name": "",
          "type": "address"
        }
      ],
      "stateMutability": "view",
      "type": "function",
      "constant": true
    },
    {
      "inputs": [],
      "name": "weiRaised",
      "outputs": [
        {
          "internalType": "uint256",
          "name": "",
          "type": "uint256"
        }
      ],
      "stateMutability": "view",
      "type": "function",
      "constant": true
    },
    {
      "inputs": [
        {
          "internalType": "address",
          "name": "beneficiary",
          "type": "address"
        }
      ],
      "name": "withdrawTokens",
      "outputs": [],
      "stateMutability": "nonpayable",
      "type": "function"
    },
    {
      "stateMutability": "payable",
      "type": "receive",
      "payable": true
    }
  ],
  "bytecode": "0x60806040523480156200001157600080fd5b5060405162003135380380620031358339818101604052810190620000379190620005dd565b8383838383838383826000815181106200007a577f4e487b7100000000000000000000000000000000000000000000000000000000600052603260045260246000fd5b6020026020010151600060038110620000bc577f4e487b7100000000000000000000000000000000000000000000000000000000600052603260045260246000fd5b6020020151828260016000819055506000831162000111576040517f08c379a00000000000000000000000000000000000000000000000000000000081526004016200010890620006f9565b60405180910390fd5b600073ffffffffffffffffffffffffffffffffffffffff168273ffffffffffffffffffffffffffffffffffffffff16141562000184576040517f08c379a00000000000000000000000000000000000000000000000000000000081526004016200017b906200071b565b60405180910390fd5b600073ffffffffffffffffffffffffffffffffffffffff168173ffffffffffffffffffffffffffffffffffffffff161415620001f7576040517f08c379a0000000000000000000000000000000000000000000000000000000008152600401620001ee90620006d7565b60405180910390fd5b8260038190555081600260006101000a81548173ffffffffffffffffffffffffffffffffffffffff021916908373ffffffffffffffffffffffffffffffffffffffff16021790555080600160006101000a81548173ffffffffffffffffffffffffffffffffffffffff021916908373ffffffffffffffffffffffffffffffffffffffff16021790555050505082600590805190602001906200029b92919062000335565b5083600660006101000a81548160ff021916908360ff16021790555050505050604051620002c9906200039a565b604051809103906000f080158015620002e6573d6000803e3d6000fd5b50600860006101000a81548173ffffffffffffffffffffffffffffffffffffffff021916908373ffffffffffffffffffffffffffffffffffffffff1602179055505050505050505050620009d3565b82805482825590600052602060002090600302810192821562000387579160200282015b82811115620003865782518290600362000375929190620003a8565b509160200191906003019062000359565b5b509050620003969190620003ed565b5090565b61080e806200292783390190565b8260038101928215620003da579160200282015b82811115620003d9578251825591602001919060010190620003bc565b5b509050620003e9919062000415565b5090565b5b8082111562000411576000818162000407919062000434565b50600301620003ee565b5090565b5b808211156200043057600081600090555060010162000416565b5090565b50600081556001016000815560010160009055565b6000620004606200045a8462000766565b6200073d565b905080838252602082019050828560608602820111156200048057600080fd5b60005b85811015620004b457816200049988826200056e565b84526020840193506060830192505060018101905062000483565b5050509392505050565b6000620004d5620004cf8462000795565b6200073d565b90508082856020860282011115620004ec57600080fd5b60005b85811015620005205781620005058882620005af565b845260208401935060208301925050600181019050620004ef565b5050509392505050565b6000815190506200053b816200096b565b92915050565b600082601f8301126200055357600080fd5b81516200056584826020860162000449565b91505092915050565b600082601f8301126200058057600080fd5b60036200058f848285620004be565b91505092915050565b600081519050620005a98162000985565b92915050565b600081519050620005c0816200099f565b92915050565b600081519050620005d781620009b9565b92915050565b60008060008060808587031215620005f457600080fd5b60006200060487828801620005c6565b945050602085015167ffffffffffffffff8111156200062257600080fd5b620006308782880162000541565b935050604062000643878288016200052a565b9250506060620006568782880162000598565b91505092959194509250565b600062000671602483620007be565b91506200067e82620008a4565b604082019050919050565b600062000698601483620007be565b9150620006a582620008f3565b602082019050919050565b6000620006bf602583620007be565b9150620006cc826200091c565b604082019050919050565b60006020820190508181036000830152620006f28162000662565b9050919050565b60006020820190508181036000830152620007148162000689565b9050919050565b600060208201905081810360008301526200073681620006b0565b9050919050565b6000620007496200075c565b90506200075782826200082e565b919050565b6000604051905090565b600067ffffffffffffffff82111562000784576200078362000864565b5b602082029050602081019050919050565b600067ffffffffffffffff821115620007b357620007b262000864565b5b602082029050919050565b600082825260208201905092915050565b6000620007dc82620007f7565b9050919050565b6000620007f082620007cf565b9050919050565b600073ffffffffffffffffffffffffffffffffffffffff82169050919050565b6000819050919050565b600060ff82169050919050565b620008398262000893565b810181811067ffffffffffffffff821117156200085b576200085a62000864565b5b80604052505050565b7f4e487b7100000000000000000000000000000000000000000000000000000000600052604160045260246000fd5b6000601f19601f8301169050919050565b7f43726f776473616c653a20746f6b656e20697320746865207a65726f2061646460008201527f7265737300000000000000000000000000000000000000000000000000000000602082015250565b7f43726f776473616c653a20726174652069732030000000000000000000000000600082015250565b7f43726f776473616c653a2077616c6c657420697320746865207a65726f20616460008201527f6472657373000000000000000000000000000000000000000000000000000000602082015250565b6200097681620007cf565b81146200098257600080fd5b50565b6200099081620007e3565b81146200099c57600080fd5b50565b620009aa8162000817565b8114620009b657600080fd5b50565b620009c48162000821565b8114620009d057600080fd5b50565b611f4480620009e36000396000f3fe6080604052600436106100e15760003560e01c806370a082311161007f578063e72fbe7e11610059578063e72fbe7e146102bb578063ec8ac4d8146102e6578063f7fb07b014610302578063fc0c546a1461032d576100f8565b806370a08231146102285780639accab5514610265578063bd0fd21914610290576100f8565b806347535d7b116100bb57806347535d7b1461017e57806347a7b1a5146101a957806349df728c146101d4578063521eb273146101fd576100f8565b80631515bc2b146100fd5780632c4e722e146101285780634042b66f14610153576100f8565b366100f8576100f66100f1610358565b610360565b005b600080fd5b34801561010957600080fd5b50610112610486565b60405161011f919061174a565b60405180910390f35b34801561013457600080fd5b5061013d610497565b60405161014a91906118c5565b60405180910390f35b34801561015f57600080fd5b506101686104a1565b60405161017591906118c5565b60405180910390f35b34801561018a57600080fd5b506101936104ab565b6040516101a0919061174a565b60405180910390f35b3480156101b557600080fd5b506101be6104d0565b6040516101cb91906118c5565b60405180910390f35b3480156101e057600080fd5b506101fb60048036038101906101f6919061143b565b61077d565b005b34801561020957600080fd5b5061021261097a565b60405161021f91906116e4565b60405180910390f35b34801561023457600080fd5b5061024f600480360381019061024a919061143b565b6109a4565b60405161025c91906118c5565b60405180910390f35b34801561027157600080fd5b5061027a6109ed565b6040516102879190611728565b60405180910390f35b34801561029c57600080fd5b506102a5610a7d565b6040516102b2919061174a565b60405180910390f35b3480156102c757600080fd5b506102d0610b1a565b6040516102dd91906118c5565b60405180910390f35b61030060048036038101906102fb919061143b565b610360565b005b34801561030e57600080fd5b50610317610dc7565b60405161032491906118c5565b60405180910390f35b34801561033957600080fd5b50610342611074565b60405161034f9190611765565b60405180910390f35b600033905090565b600260005414156103a6576040517f08c379a000000000000000000000000000000000000000000000000000000000815260040161039d90611885565b60405180910390fd5b600260008190555060003490506103bd828261109e565b60006103c8826110f3565b90506103df8260045461114190919063ffffffff16565b6004819055506103ef8382611157565b8273ffffffffffffffffffffffffffffffffffffffff1661040e610358565b73ffffffffffffffffffffffffffffffffffffffff167f6faf93231a456e552dbc9961f58d9713ee4f2e69d15f1975b050ef0911053a7b84846040516104559291906118e0565b60405180910390a3610467838361121c565b61046f611220565b610479838361128b565b5050600160008190555050565b60006104906104d0565b4211905090565b6000600354905090565b6000600454905090565b60006104b5610b1a565b42101580156104cb57506104c76104d0565b4211155b905090565b60008060058054905011610519576040517f08c379a0000000000000000000000000000000000000000000000000000000008152600401610510906117d7565b60405180910390fd5b60004290506000600560008154811061055b577f4e487b7100000000000000000000000000000000000000000000000000000000600052603260045260246000fd5b90600052602060002090600302016002600381106105a2577f4e487b7100000000000000000000000000000000000000000000000000000000600052603260045260246000fd5b0154905060005b6005805490508160ff1610156107745760058160ff16815481106105f6577f4e487b7100000000000000000000000000000000000000000000000000000000600052603260045260246000fd5b906000526020600020906003020160016003811061063d577f4e487b7100000000000000000000000000000000000000000000000000000000600052603260045260246000fd5b015483101580156106d3575060058160ff1681548110610686577f4e487b7100000000000000000000000000000000000000000000000000000000600052603260045260246000fd5b90600052602060002090600302016002600381106106cd577f4e487b7100000000000000000000000000000000000000000000000000000000600052603260045260246000fd5b01548311155b156107615760058160ff1681548110610715577f4e487b7100000000000000000000000000000000000000000000000000000000600052603260045260246000fd5b906000526020600020906003020160026003811061075c577f4e487b7100000000000000000000000000000000000000000000000000000000600052603260045260246000fd5b015491505b808061076c90611c91565b9150506105a9565b50809250505090565b610785610a7d565b6107c4576040517f08c379a00000000000000000000000000000000000000000000000000000000081526004016107bb90611865565b60405180910390fd5b6000600760008373ffffffffffffffffffffffffffffffffffffffff1673ffffffffffffffffffffffffffffffffffffffff1681526020019081526020016000205490506000811161084b576040517f08c379a0000000000000000000000000000000000000000000000000000000008152600401610842906117f7565b60405180910390fd5b6000600760008473ffffffffffffffffffffffffffffffffffffffff1673ffffffffffffffffffffffffffffffffffffffff16815260200190815260200160002081905550600860009054906101000a900473ffffffffffffffffffffffffffffffffffffffff1673ffffffffffffffffffffffffffffffffffffffff1663beabacc86108d6611074565b84846040518463ffffffff1660e01b81526004016108f693929190611780565b600060405180830381600087803b15801561091057600080fd5b505af1158015610924573d6000803e3d6000fd5b505050508173ffffffffffffffffffffffffffffffffffffffff167fca5d824d3b95073ca2dcd2653a7b70ec44ec85dc92e9da13b8642c20eaec5fbd8260405161096e9190611817565b60405180910390a25050565b6000600260009054906101000a900473ffffffffffffffffffffffffffffffffffffffff16905090565b6000600760008373ffffffffffffffffffffffffffffffffffffffff1673ffffffffffffffffffffffffffffffffffffffff168152602001908152602001600020549050919050565b60606005805480602002602001604051908101604052809291908181526020016000905b82821015610a745783829060005260206000209060030201600380602002604051908101604052809291908260038015610a60576020028201915b815481526020019060010190808311610a4c575b505050505081526020019060010190610a11565b50505050905090565b600060056001600580549050610a939190611bd2565b81548110610aca577f4e487b7100000000000000000000000000000000000000000000000000000000600052603260045260246000fd5b9060005260206000209060030201600260038110610b11577f4e487b7100000000000000000000000000000000000000000000000000000000600052603260045260246000fd5b01544211905090565b60008060058054905011610b63576040517f08c379a0000000000000000000000000000000000000000000000000000000008152600401610b5a906117d7565b60405180910390fd5b600042905060006005600081548110610ba5577f4e487b7100000000000000000000000000000000000000000000000000000000600052603260045260246000fd5b9060005260206000209060030201600160038110610bec577f4e487b7100000000000000000000000000000000000000000000000000000000600052603260045260246000fd5b0154905060005b6005805490508160ff161015610dbe5760058160ff1681548110610c40577f4e487b7100000000000000000000000000000000000000000000000000000000600052603260045260246000fd5b9060005260206000209060030201600160038110610c87577f4e487b7100000000000000000000000000000000000000000000000000000000600052603260045260246000fd5b01548310158015610d1d575060058160ff1681548110610cd0577f4e487b7100000000000000000000000000000000000000000000000000000000600052603260045260246000fd5b9060005260206000209060030201600260038110610d17577f4e487b7100000000000000000000000000000000000000000000000000000000600052603260045260246000fd5b01548311155b15610dab5760058160ff1681548110610d5f577f4e487b7100000000000000000000000000000000000000000000000000000000600052603260045260246000fd5b9060005260206000209060030201600160038110610da6577f4e487b7100000000000000000000000000000000000000000000000000000000600052603260045260246000fd5b015491505b8080610db690611c91565b915050610bf3565b50809250505090565b60008060058054905011610e10576040517f08c379a0000000000000000000000000000000000000000000000000000000008152600401610e07906117d7565b60405180910390fd5b600042905060006005600081548110610e52577f4e487b7100000000000000000000000000000000000000000000000000000000600052603260045260246000fd5b9060005260206000209060030201600060038110610e99577f4e487b7100000000000000000000000000000000000000000000000000000000600052603260045260246000fd5b0154905060005b6005805490508160ff16101561106b5760058160ff1681548110610eed577f4e487b7100000000000000000000000000000000000000000000000000000000600052603260045260246000fd5b9060005260206000209060030201600160038110610f34577f4e487b7100000000000000000000000000000000000000000000000000000000600052603260045260246000fd5b01548310158015610fca575060058160ff1681548110610f7d577f4e487b7100000000000000000000000000000000000000000000000000000000600052603260045260246000fd5b9060005260206000209060030201600260038110610fc4577f4e487b7100000000000000000000000000000000000000000000000000000000600052603260045260246000fd5b01548311155b156110585760058160ff168154811061100c577f4e487b7100000000000000000000000000000000000000000000000000000000600052603260045260246000fd5b9060005260206000209060030201600060038110611053577f4e487b7100000000000000000000000000000000000000000000000000000000600052603260045260246000fd5b015491505b808061106390611c91565b915050610ea0565b50809250505090565b6000600160009054906101000a900473ffffffffffffffffffffffffffffffffffffffff16905090565b6110a66104ab565b6110e5576040517f08c379a00000000000000000000000000000000000000000000000000000000081526004016110dc906117b7565b60405180910390fd5b6110ef828261128f565b5050565b6000806110fe610dc7565b9050600660009054906101000a900460ff16600a61111c9190611a5a565b61112f828561134790919063ffffffff16565b6111399190611b78565b915050919050565b6000818361114f9190611980565b905092915050565b6111a981600760008573ffffffffffffffffffffffffffffffffffffffff1673ffffffffffffffffffffffffffffffffffffffff1681526020019081526020016000205461114190919063ffffffff16565b600760008473ffffffffffffffffffffffffffffffffffffffff1673ffffffffffffffffffffffffffffffffffffffff16815260200190815260200160002081905550611218600860009054906101000a900473ffffffffffffffffffffffffffffffffffffffff168261135d565b5050565b5050565b600260009054906101000a900473ffffffffffffffffffffffffffffffffffffffff1673ffffffffffffffffffffffffffffffffffffffff166108fc349081150290604051600060405180830381858888f19350505050158015611288573d6000803e3d6000fd5b50565b5050565b600073ffffffffffffffffffffffffffffffffffffffff168273ffffffffffffffffffffffffffffffffffffffff1614156112ff576040517f08c379a00000000000000000000000000000000000000000000000000000000081526004016112f690611845565b60405180910390fd5b6000811415611343576040517f08c379a000000000000000000000000000000000000000000000000000000000815260040161133a906118a5565b60405180910390fd5b5050565b6000818361135591906119d6565b905092915050565b600160009054906101000a900473ffffffffffffffffffffffffffffffffffffffff1673ffffffffffffffffffffffffffffffffffffffff1663a9059cbb83836040518363ffffffff1660e01b81526004016113ba9291906116ff565b602060405180830381600087803b1580156113d457600080fd5b505af11580156113e8573d6000803e3d6000fd5b505050506040513d601f19601f8201168201806040525081019061140c9190611464565b505050565b60008135905061142081611ee0565b92915050565b60008151905061143581611ef7565b92915050565b60006020828403121561144d57600080fd5b600061145b84828501611411565b91505092915050565b60006020828403121561147657600080fd5b600061148484828501611426565b91505092915050565b60006114998383611539565b60608301905092915050565b60006114b183836116c6565b60208301905092915050565b6114c681611c18565b82525050565b6114d581611c06565b82525050565b60006114e682611923565b6114f08185611953565b93506114fb83611909565b8060005b8381101561152c578151611513888261148d565b975061151e83611939565b9250506001810190506114ff565b5085935050505092915050565b6115428161192e565b61154c8184611964565b925061155782611919565b8060005b8381101561158857815161156f87826114a5565b965061157a83611946565b92505060018101905061155b565b505050505050565b61159981611c2a565b82525050565b6115a881611c6d565b82525050565b60006115bb60188361196f565b91506115c682611d26565b602082019050919050565b60006115de600c8361196f565b91506115e982611d4f565b602082019050919050565b600061160160388361196f565b915061160c82611d78565b604082019050919050565b600061162460158361196f565b915061162f82611dc7565b602082019050919050565b6000611647602a8361196f565b915061165282611df0565b604082019050919050565b600061166a60218361196f565b915061167582611e3f565b604082019050919050565b600061168d601f8361196f565b915061169882611e8e565b602082019050919050565b60006116b060198361196f565b91506116bb82611eb7565b602082019050919050565b6116cf81611c56565b82525050565b6116de81611c56565b82525050565b60006020820190506116f960008301846114bd565b92915050565b600060408201905061171460008301856114cc565b61172160208301846116d5565b9392505050565b6000602082019050818103600083015261174281846114db565b905092915050565b600060208201905061175f6000830184611590565b92915050565b600060208201905061177a600083018461159f565b92915050565b6000606082019050611795600083018661159f565b6117a260208301856114cc565b6117af60408301846116d5565b949350505050565b600060208201905081810360008301526117d0816115ae565b9050919050565b600060208201905081810360008301526117f0816115d1565b9050919050565b60006020820190508181036000830152611810816115f4565b9050919050565b6000604082019050818103600083015261183081611617565b905061183f60208301846116d5565b92915050565b6000602082019050818103600083015261185e8161163a565b9050919050565b6000602082019050818103600083015261187e8161165d565b9050919050565b6000602082019050818103600083015261189e81611680565b9050919050565b600060208201905081810360008301526118be816116a3565b9050919050565b60006020820190506118da60008301846116d5565b92915050565b60006040820190506118f560008301856116d5565b61190260208301846116d5565b9392505050565b6000819050602082019050919050565b6000819050919050565b600081519050919050565b600060039050919050565b6000602082019050919050565b6000602082019050919050565b600082825260208201905092915050565b600081905092915050565b600082825260208201905092915050565b600061198b82611c56565b915061199683611c56565b9250827fffffffffffffffffffffffffffffffffffffffffffffffffffffffffffffffff038211156119cb576119ca611cbb565b5b828201905092915050565b60006119e182611c56565b91506119ec83611c56565b9250826119fc576119fb611cea565b5b828204905092915050565b6000808291508390505b6001851115611a5157808604811115611a2d57611a2c611cbb565b5b6001851615611a3c5780820291505b8081029050611a4a85611d19565b9450611a11565b94509492505050565b6000611a6582611c56565b9150611a7083611c60565b9250611a9d7fffffffffffffffffffffffffffffffffffffffffffffffffffffffffffffffff8484611aa5565b905092915050565b600082611ab55760019050611b71565b81611ac35760009050611b71565b8160018114611ad95760028114611ae357611b12565b6001915050611b71565b60ff841115611af557611af4611cbb565b5b8360020a915084821115611b0c57611b0b611cbb565b5b50611b71565b5060208310610133831016604e8410600b8410161715611b475782820a905083811115611b4257611b41611cbb565b5b611b71565b611b548484846001611a07565b92509050818404811115611b6b57611b6a611cbb565b5b81810290505b9392505050565b6000611b8382611c56565b9150611b8e83611c56565b9250817fffffffffffffffffffffffffffffffffffffffffffffffffffffffffffffffff0483118215151615611bc757611bc6611cbb565b5b828202905092915050565b6000611bdd82611c56565b9150611be883611c56565b925082821015611bfb57611bfa611cbb565b5b828203905092915050565b6000611c1182611c36565b9050919050565b6000611c2382611c36565b9050919050565b60008115159050919050565b600073ffffffffffffffffffffffffffffffffffffffff82169050919050565b6000819050919050565b600060ff82169050919050565b6000611c7882611c7f565b9050919050565b6000611c8a82611c36565b9050919050565b6000611c9c82611c60565b915060ff821415611cb057611caf611cbb565b5b600182019050919050565b7f4e487b7100000000000000000000000000000000000000000000000000000000600052601160045260246000fd5b7f4e487b7100000000000000000000000000000000000000000000000000000000600052601260045260246000fd5b60008160011c9050919050565b7f54696d656443726f776473616c653a206e6f74206f70656e0000000000000000600082015250565b7f5261746573206c656e6774680000000000000000000000000000000000000000600082015250565b7f506f737444656c697665727943726f776473616c653a2062656e65666963696160008201527f7279206973206e6f742064756520616e7920746f6b656e730000000000000000602082015250565b7f546f6b656e7320776572652077697468647261776e0000000000000000000000600082015250565b7f43726f776473616c653a2062656e656669636961727920697320746865207a6560008201527f726f206164647265737300000000000000000000000000000000000000000000602082015250565b7f506f737444656c697665727943726f776473616c653a206e6f7420636c6f736560008201527f6400000000000000000000000000000000000000000000000000000000000000602082015250565b7f5265656e7472616e637947756172643a207265656e7472616e742063616c6c00600082015250565b7f43726f776473616c653a20776569416d6f756e74206973203000000000000000600082015250565b611ee981611c06565b8114611ef457600080fd5b50565b611f0081611c2a565b8114611f0b57600080fd5b5056fea2646970667358221220163c5b6a85333ba89fb75a345761c4b1bd904b26d85741ff1a8e7268ae03702764736f6c63430008020033608060405234801561001057600080fd5b50336000806101000a81548173ffffffffffffffffffffffffffffffffffffffff021916908373ffffffffffffffffffffffffffffffffffffffff1602179055507f4101e71e974f68df5e9730cc223280b41654676bbb052cdcc735c3337e64d2d960008054906101000a900473ffffffffffffffffffffffffffffffffffffffff166040516100a091906100bc565b60405180910390a1610109565b6100b6816100d7565b82525050565b60006020820190506100d160008301846100ad565b92915050565b60006100e2826100e9565b9050919050565b600073ffffffffffffffffffffffffffffffffffffffff82169050919050565b6106f6806101186000396000f3fe608060405234801561001057600080fd5b50600436106100415760003560e01c80632348238c14610046578063beabacc814610062578063c6dbdf611461007e575b600080fd5b610060600480360381019061005b91906103d2565b61009c565b005b61007c60048036038101906100779190610424565b610234565b005b610086610355565b60405161009391906104d7565b60405180910390f35b60008054906101000a900473ffffffffffffffffffffffffffffffffffffffff1673ffffffffffffffffffffffffffffffffffffffff163373ffffffffffffffffffffffffffffffffffffffff161461012a576040517f08c379a00000000000000000000000000000000000000000000000000000000081526004016101219061053b565b60405180910390fd5b600073ffffffffffffffffffffffffffffffffffffffff168173ffffffffffffffffffffffffffffffffffffffff16141561019a576040517f08c379a00000000000000000000000000000000000000000000000000000000081526004016101919061051b565b60405180910390fd5b806000806101000a81548173ffffffffffffffffffffffffffffffffffffffff021916908373ffffffffffffffffffffffffffffffffffffffff1602179055507f4101e71e974f68df5e9730cc223280b41654676bbb052cdcc735c3337e64d2d960008054906101000a900473ffffffffffffffffffffffffffffffffffffffff1660405161022991906104d7565b60405180910390a150565b60008054906101000a900473ffffffffffffffffffffffffffffffffffffffff1673ffffffffffffffffffffffffffffffffffffffff163373ffffffffffffffffffffffffffffffffffffffff16146102c2576040517f08c379a00000000000000000000000000000000000000000000000000000000081526004016102b99061053b565b60405180910390fd5b8273ffffffffffffffffffffffffffffffffffffffff1663a9059cbb83836040518363ffffffff1660e01b81526004016102fd9291906104f2565b602060405180830381600087803b15801561031757600080fd5b505af115801561032b573d6000803e3d6000fd5b505050506040513d601f19601f8201168201806040525081019061034f91906103fb565b50505050565b60008060009054906101000a900473ffffffffffffffffffffffffffffffffffffffff16905090565b60008135905061038d81610664565b92915050565b6000815190506103a28161067b565b92915050565b6000813590506103b781610692565b92915050565b6000813590506103cc816106a9565b92915050565b6000602082840312156103e457600080fd5b60006103f28482850161037e565b91505092915050565b60006020828403121561040d57600080fd5b600061041b84828501610393565b91505092915050565b60008060006060848603121561043957600080fd5b6000610447868287016103a8565b93505060206104588682870161037e565b9250506040610469868287016103bd565b9150509250925092565b61047c8161056c565b82525050565b600061048f602a8361055b565b915061049a826105c6565b604082019050919050565b60006104b2602c8361055b565b91506104bd82610615565b604082019050919050565b6104d1816105bc565b82525050565b60006020820190506104ec6000830184610473565b92915050565b60006040820190506105076000830185610473565b61051460208301846104c8565b9392505050565b6000602082019050818103600083015261053481610482565b9050919050565b60006020820190508181036000830152610554816104a5565b9050919050565b600082825260208201905092915050565b60006105778261059c565b9050919050565b60008115159050919050565b60006105958261056c565b9050919050565b600073ffffffffffffffffffffffffffffffffffffffff82169050919050565b6000819050919050565b7f5365636f6e646172793a206e6577207072696d61727920697320746865207a6560008201527f726f206164647265737300000000000000000000000000000000000000000000602082015250565b7f5365636f6e646172793a2063616c6c6572206973206e6f74207468652070726960008201527f6d617279206163636f756e740000000000000000000000000000000000000000602082015250565b61066d8161056c565b811461067857600080fd5b50565b6106848161057e565b811461068f57600080fd5b50565b61069b8161058a565b81146106a657600080fd5b50565b6106b2816105bc565b81146106bd57600080fd5b5056fea264697066735822122028779ef92165250b79dca73975e6f1682ea25600dcf7671c05eb3b9e878bdf7964736f6c63430008020033",
  "immutableReferences": {},
  "source": "// SPDX-License-Identifier: MIT\npragma solidity ^0.8.2;\n\nimport \"./helpers/PostDeliveryCrowdsale.sol\";\n\ncontract TokenSale is PostDeliveryCrowdsale {\n    constructor(\n        uint8 decimals_,\n        uint256[3][] memory rates_, // rate in TKNbits\n        address wallet_,\n        IERC20 token_\n    ) PostDeliveryCrowdsale(decimals_, rates_, payable(wallet_), token_) {}\n}\n",
  "sourcePath": "/Users/tischlerkristof/MayIFit/Work/test/colibri/contracts/TokenSale.sol",
  "compiler": {
    "name": "solc",
    "version": "0.8.2+commit.661d1103.Emscripten.clang"
  },
  "schemaVersion": "3.4.3",
  "updatedAt": "2021-10-28T21:56:30.561Z",
  "networkType": "ethereum",
  "devdoc": {
    "kind": "dev",
    "methods": {
      "balanceOf(address)": {
        "returns": {
          "_0": "the balance of an account."
        }
      },
      "buyTokens(address)": {
        "details": "low level token purchase ***DO NOT OVERRIDE*** This function has a non-reentrancy guard, so it shouldn't be called by another `nonReentrant` function.",
        "params": {
          "beneficiary": "Recipient of the token purchase"
        }
      },
      "getCurrentRate()": {
        "details": "Returns the rate of tokens per wei at the present time.",
        "returns": {
          "_0": "The number of tokens a buyer gets per wei at a given time"
        }
      },
      "hasClosed()": {
        "details": "Checks whether the period in which the crowdsale is open has already elapsed.",
        "returns": {
          "_0": "Whether crowdsale period has elapsed"
        }
      },
      "hasFinalClosed()": {
        "details": "Checks whether the final period in which the crowdsale is open has already elapsed.",
        "returns": {
          "_0": "Whether crowdsale final period has elapsed"
        }
      },
      "isOpen()": {
        "returns": {
          "_0": "true if the crowdsale is open, false otherwise."
        }
      },
      "rate()": {
        "returns": {
          "_0": "the number of token units a buyer gets per wei."
        }
      },
      "token()": {
        "returns": {
          "_0": "the token being sold."
        }
      },
      "wallet()": {
        "returns": {
          "_0": "the address where funds are collected."
        }
      },
      "weiRaised()": {
        "returns": {
          "_0": "the amount of wei raised."
        }
      },
      "withdrawTokens(address)": {
        "details": "Withdraw tokens only after crowdsale ends.",
        "params": {
          "beneficiary": "Whose tokens will be withdrawn."
        }
      }
    },
    "version": 1
  },
  "userdoc": {
    "events": {
      "TokensPurchased(address,address,uint256,uint256)": {
        "notice": "Event for token purchase logging"
      }
    },
    "kind": "user",
    "methods": {},
    "version": 1
  }
}