{
  "contractName": "Token",
  "abi": [
    {
      "inputs": [
        {
          "internalType": "string",
          "name": "name",
          "type": "string"
        },
        {
          "internalType": "string",
          "name": "symbol",
          "type": "string"
        },
        {
          "internalType": "uint8",
          "name": "_decimals",
          "type": "uint8"
        },
        {
          "internalType": "uint256",
          "name": "initialAmount",
          "type": "uint256"
        }
      ],
      "stateMutability": "nonpayable",
      "type": "constructor"
    },
    {
      "anonymous": false,
      "inputs": [
        {
          "indexed": true,
          "internalType": "address",
          "name": "owner",
          "type": "address"
        },
        {
          "indexed": true,
          "internalType": "address",
          "name": "spender",
          "type": "address"
        },
        {
          "indexed": false,
          "internalType": "uint256",
          "name": "value",
          "type": "uint256"
        }
      ],
      "name": "Approval",
      "type": "event"
    },
    {
      "anonymous": false,
      "inputs": [
        {
          "indexed": false,
          "internalType": "string",
          "name": "description",
          "type": "string"
        },
        {
          "indexed": true,
          "internalType": "address",
          "name": "_from",
          "type": "address"
        },
        {
          "indexed": false,
          "internalType": "uint256",
          "name": "_n",
          "type": "uint256"
        }
      ],
      "name": "LogNewAlert",
      "type": "event"
    },
    {
      "anonymous": false,
      "inputs": [
        {
          "indexed": true,
          "internalType": "bytes32",
          "name": "role",
          "type": "bytes32"
        },
        {
          "indexed": true,
          "internalType": "bytes32",
          "name": "previousAdminRole",
          "type": "bytes32"
        },
        {
          "indexed": true,
          "internalType": "bytes32",
          "name": "newAdminRole",
          "type": "bytes32"
        }
      ],
      "name": "RoleAdminChanged",
      "type": "event"
    },
    {
      "anonymous": false,
      "inputs": [
        {
          "indexed": true,
          "internalType": "bytes32",
          "name": "role",
          "type": "bytes32"
        },
        {
          "indexed": true,
          "internalType": "address",
          "name": "account",
          "type": "address"
        },
        {
          "indexed": true,
          "internalType": "address",
          "name": "sender",
          "type": "address"
        }
      ],
      "name": "RoleGranted",
      "type": "event"
    },
    {
      "anonymous": false,
      "inputs": [
        {
          "indexed": true,
          "internalType": "bytes32",
          "name": "role",
          "type": "bytes32"
        },
        {
          "indexed": true,
          "internalType": "address",
          "name": "account",
          "type": "address"
        },
        {
          "indexed": true,
          "internalType": "address",
          "name": "sender",
          "type": "address"
        }
      ],
      "name": "RoleRevoked",
      "type": "event"
    },
    {
      "anonymous": false,
      "inputs": [
        {
          "indexed": true,
          "internalType": "address",
          "name": "from",
          "type": "address"
        },
        {
          "indexed": true,
          "internalType": "address",
          "name": "to",
          "type": "address"
        },
        {
          "indexed": false,
          "internalType": "uint256",
          "name": "value",
          "type": "uint256"
        }
      ],
      "name": "Transfer",
      "type": "event"
    },
    {
      "inputs": [],
      "name": "DEFAULT_ADMIN_ROLE",
      "outputs": [
        {
          "internalType": "bytes32",
          "name": "",
          "type": "bytes32"
        }
      ],
      "stateMutability": "view",
      "type": "function",
      "constant": true
    },
    {
      "inputs": [],
      "name": "MINTER_ROLE",
      "outputs": [
        {
          "internalType": "bytes32",
          "name": "",
          "type": "bytes32"
        }
      ],
      "stateMutability": "view",
      "type": "function",
      "constant": true
    },
    {
      "inputs": [
        {
          "internalType": "address",
          "name": "owner",
          "type": "address"
        },
        {
          "internalType": "address",
          "name": "spender",
          "type": "address"
        }
      ],
      "name": "allowance",
      "outputs": [
        {
          "internalType": "uint256",
          "name": "",
          "type": "uint256"
        }
      ],
      "stateMutability": "view",
      "type": "function",
      "constant": true
    },
    {
      "inputs": [
        {
          "internalType": "address",
          "name": "spender",
          "type": "address"
        },
        {
          "internalType": "uint256",
          "name": "amount",
          "type": "uint256"
        }
      ],
      "name": "approve",
      "outputs": [
        {
          "internalType": "bool",
          "name": "",
          "type": "bool"
        }
      ],
      "stateMutability": "nonpayable",
      "type": "function"
    },
    {
      "inputs": [
        {
          "internalType": "address",
          "name": "account",
          "type": "address"
        }
      ],
      "name": "balanceOf",
      "outputs": [
        {
          "internalType": "uint256",
          "name": "",
          "type": "uint256"
        }
      ],
      "stateMutability": "view",
      "type": "function",
      "constant": true
    },
    {
      "inputs": [
        {
          "internalType": "uint256",
          "name": "amount",
          "type": "uint256"
        }
      ],
      "name": "burn",
      "outputs": [],
      "stateMutability": "nonpayable",
      "type": "function"
    },
    {
      "inputs": [
        {
          "internalType": "address",
          "name": "account",
          "type": "address"
        },
        {
          "internalType": "uint256",
          "name": "amount",
          "type": "uint256"
        }
      ],
      "name": "burnFrom",
      "outputs": [],
      "stateMutability": "nonpayable",
      "type": "function"
    },
    {
      "inputs": [
        {
          "internalType": "address",
          "name": "spender",
          "type": "address"
        },
        {
          "internalType": "uint256",
          "name": "subtractedValue",
          "type": "uint256"
        }
      ],
      "name": "decreaseAllowance",
      "outputs": [
        {
          "internalType": "bool",
          "name": "",
          "type": "bool"
        }
      ],
      "stateMutability": "nonpayable",
      "type": "function"
    },
    {
      "inputs": [
        {
          "internalType": "bytes32",
          "name": "role",
          "type": "bytes32"
        }
      ],
      "name": "getRoleAdmin",
      "outputs": [
        {
          "internalType": "bytes32",
          "name": "",
          "type": "bytes32"
        }
      ],
      "stateMutability": "view",
      "type": "function",
      "constant": true
    },
    {
      "inputs": [
        {
          "internalType": "bytes32",
          "name": "role",
          "type": "bytes32"
        },
        {
          "internalType": "address",
          "name": "account",
          "type": "address"
        }
      ],
      "name": "grantRole",
      "outputs": [],
      "stateMutability": "nonpayable",
      "type": "function"
    },
    {
      "inputs": [
        {
          "internalType": "bytes32",
          "name": "role",
          "type": "bytes32"
        },
        {
          "internalType": "address",
          "name": "account",
          "type": "address"
        }
      ],
      "name": "hasRole",
      "outputs": [
        {
          "internalType": "bool",
          "name": "",
          "type": "bool"
        }
      ],
      "stateMutability": "view",
      "type": "function",
      "constant": true
    },
    {
      "inputs": [
        {
          "internalType": "address",
          "name": "spender",
          "type": "address"
        },
        {
          "internalType": "uint256",
          "name": "addedValue",
          "type": "uint256"
        }
      ],
      "name": "increaseAllowance",
      "outputs": [
        {
          "internalType": "bool",
          "name": "",
          "type": "bool"
        }
      ],
      "stateMutability": "nonpayable",
      "type": "function"
    },
    {
      "inputs": [],
      "name": "name",
      "outputs": [
        {
          "internalType": "string",
          "name": "",
          "type": "string"
        }
      ],
      "stateMutability": "view",
      "type": "function",
      "constant": true
    },
    {
      "inputs": [
        {
          "internalType": "bytes32",
          "name": "role",
          "type": "bytes32"
        },
        {
          "internalType": "address",
          "name": "account",
          "type": "address"
        }
      ],
      "name": "renounceRole",
      "outputs": [],
      "stateMutability": "nonpayable",
      "type": "function"
    },
    {
      "inputs": [
        {
          "internalType": "bytes32",
          "name": "role",
          "type": "bytes32"
        },
        {
          "internalType": "address",
          "name": "account",
          "type": "address"
        }
      ],
      "name": "revokeRole",
      "outputs": [],
      "stateMutability": "nonpayable",
      "type": "function"
    },
    {
      "inputs": [
        {
          "internalType": "bytes4",
          "name": "interfaceId",
          "type": "bytes4"
        }
      ],
      "name": "supportsInterface",
      "outputs": [
        {
          "internalType": "bool",
          "name": "",
          "type": "bool"
        }
      ],
      "stateMutability": "view",
      "type": "function",
      "constant": true
    },
    {
      "inputs": [],
      "name": "symbol",
      "outputs": [
        {
          "internalType": "string",
          "name": "",
          "type": "string"
        }
      ],
      "stateMutability": "view",
      "type": "function",
      "constant": true
    },
    {
      "inputs": [],
      "name": "totalSupply",
      "outputs": [
        {
          "internalType": "uint256",
          "name": "",
          "type": "uint256"
        }
      ],
      "stateMutability": "view",
      "type": "function",
      "constant": true
    },
    {
      "inputs": [
        {
          "internalType": "address",
          "name": "recipient",
          "type": "address"
        },
        {
          "internalType": "uint256",
          "name": "amount",
          "type": "uint256"
        }
      ],
      "name": "transfer",
      "outputs": [
        {
          "internalType": "bool",
          "name": "",
          "type": "bool"
        }
      ],
      "stateMutability": "nonpayable",
      "type": "function"
    },
    {
      "inputs": [
        {
          "internalType": "address",
          "name": "sender",
          "type": "address"
        },
        {
          "internalType": "address",
          "name": "recipient",
          "type": "address"
        },
        {
          "internalType": "uint256",
          "name": "amount",
          "type": "uint256"
        }
      ],
      "name": "transferFrom",
      "outputs": [
        {
          "internalType": "bool",
          "name": "",
          "type": "bool"
        }
      ],
      "stateMutability": "nonpayable",
      "type": "function"
    },
    {
      "inputs": [],
      "name": "decimals",
      "outputs": [
        {
          "internalType": "uint8",
          "name": "",
          "type": "uint8"
        }
      ],
      "stateMutability": "view",
      "type": "function",
      "constant": true
    },
    {
      "inputs": [
        {
          "internalType": "address",
          "name": "to",
          "type": "address"
        },
        {
          "internalType": "uint256",
          "name": "amount",
          "type": "uint256"
        }
      ],
      "name": "mint",
      "outputs": [],
      "stateMutability": "nonpayable",
      "type": "function"
    }
  ],
  "bytecode": "0x60806040523480156200001157600080fd5b506040516200342d3803806200342d83398181016040528101906200003791906200060a565b8383816003908051906020019062000051929190620004ba565b5080600490805190602001906200006a929190620004ba565b50505081600660006101000a81548160ff021916908360ff16021790555060006200009a6200016b60201b60201c565b600a620000a89190620008a0565b9050620000bf6000801b336200018260201b60201c565b620000f17f9f2df0fed2c77648de5860a4cc508cd0818c85b8b8a1ab4ceeef8d981c8956a6336200018260201b60201c565b62000110338284620001049190620009dd565b6200019860201b60201c565b4173ffffffffffffffffffffffffffffffffffffffff167f773a356cf0813bd1ca65bdc565502f1d0bbe0bdb956cb13da59a9a437e2bd0124360405162000158919062000707565b60405180910390a2505050505062000c28565b6000600660009054906101000a900460ff16905090565b6200019482826200031160201b60201c565b5050565b600073ffffffffffffffffffffffffffffffffffffffff168273ffffffffffffffffffffffffffffffffffffffff1614156200020b576040517f08c379a0000000000000000000000000000000000000000000000000000000008152600401620002029062000739565b60405180910390fd5b6200021f600083836200040360201b60201c565b8060026000828254620002339190620007e8565b92505081905550806000808473ffffffffffffffffffffffffffffffffffffffff1673ffffffffffffffffffffffffffffffffffffffff16815260200190815260200160002060008282546200028a9190620007e8565b925050819055508173ffffffffffffffffffffffffffffffffffffffff16600073ffffffffffffffffffffffffffffffffffffffff167fddf252ad1be2c89b69c2b068fc378daa952ba7f163c4a11628f55a4df523b3ef83604051620002f191906200075b565b60405180910390a36200030d600083836200042060201b60201c565b5050565b6200032382826200043d60201b60201c565b620003ff5760016005600084815260200190815260200160002060000160008373ffffffffffffffffffffffffffffffffffffffff1673ffffffffffffffffffffffffffffffffffffffff16815260200190815260200160002060006101000a81548160ff021916908315150217905550620003a4620004a860201b60201c565b73ffffffffffffffffffffffffffffffffffffffff168173ffffffffffffffffffffffffffffffffffffffff16837f2f8788117e7eff1d82e926ec794901d17c78024a50270940304540a733656f0d60405160405180910390a45b5050565b6200041b838383620004b060201b62000c371760201c565b505050565b62000438838383620004b560201b62000c3c1760201c565b505050565b60006005600084815260200190815260200160002060000160008373ffffffffffffffffffffffffffffffffffffffff1673ffffffffffffffffffffffffffffffffffffffff16815260200190815260200160002060009054906101000a900460ff16905092915050565b600033905090565b505050565b505050565b828054620004c89062000a8b565b90600052602060002090601f016020900481019282620004ec576000855562000538565b82601f106200050757805160ff191683800117855562000538565b8280016001018555821562000538579182015b82811115620005375782518255916020019190600101906200051a565b5b5090506200054791906200054b565b5090565b5b80821115620005665760008160009055506001016200054c565b5090565b6000620005816200057b84620007a1565b62000778565b9050828152602081018484840111156200059a57600080fd5b620005a784828562000a55565b509392505050565b600082601f830112620005c157600080fd5b8151620005d38482602086016200056a565b91505092915050565b600081519050620005ed8162000bf4565b92915050565b600081519050620006048162000c0e565b92915050565b600080600080608085870312156200062157600080fd5b600085015167ffffffffffffffff8111156200063c57600080fd5b6200064a87828801620005af565b945050602085015167ffffffffffffffff8111156200066857600080fd5b6200067687828801620005af565b93505060406200068987828801620005f3565b92505060606200069c87828801620005dc565b91505092959194509250565b6000620006b7600983620007d7565b9150620006c48262000ba2565b602082019050919050565b6000620006de601f83620007d7565b9150620006eb8262000bcb565b602082019050919050565b620007018162000a3e565b82525050565b600060408201905081810360008301526200072281620006a8565b9050620007336020830184620006f6565b92915050565b600060208201905081810360008301526200075481620006cf565b9050919050565b6000602082019050620007726000830184620006f6565b92915050565b60006200078462000797565b905062000792828262000ac1565b919050565b6000604051905090565b600067ffffffffffffffff821115620007bf57620007be62000b55565b5b620007ca8262000b84565b9050602081019050919050565b600082825260208201905092915050565b6000620007f58262000a3e565b9150620008028362000a3e565b9250827fffffffffffffffffffffffffffffffffffffffffffffffffffffffffffffffff038211156200083a576200083962000af7565b5b828201905092915050565b6000808291508390505b600185111562000897578086048111156200086f576200086e62000af7565b5b60018516156200087f5780820291505b80810290506200088f8562000b95565b94506200084f565b94509492505050565b6000620008ad8262000a3e565b9150620008ba8362000a48565b9250620008e97fffffffffffffffffffffffffffffffffffffffffffffffffffffffffffffffff8484620008f1565b905092915050565b600082620009035760019050620009d6565b81620009135760009050620009d6565b81600181146200092c576002811462000937576200096d565b6001915050620009d6565b60ff8411156200094c576200094b62000af7565b5b8360020a91508482111562000966576200096562000af7565b5b50620009d6565b5060208310610133831016604e8410600b8410161715620009a75782820a905083811115620009a157620009a062000af7565b5b620009d6565b620009b6848484600162000845565b92509050818404811115620009d057620009cf62000af7565b5b81810290505b9392505050565b6000620009ea8262000a3e565b9150620009f78362000a3e565b9250817fffffffffffffffffffffffffffffffffffffffffffffffffffffffffffffffff048311821515161562000a335762000a3262000af7565b5b828202905092915050565b6000819050919050565b600060ff82169050919050565b60005b8381101562000a7557808201518184015260208101905062000a58565b8381111562000a85576000848401525b50505050565b6000600282049050600182168062000aa457607f821691505b6020821081141562000abb5762000aba62000b26565b5b50919050565b62000acc8262000b84565b810181811067ffffffffffffffff8211171562000aee5762000aed62000b55565b5b80604052505050565b7f4e487b7100000000000000000000000000000000000000000000000000000000600052601160045260246000fd5b7f4e487b7100000000000000000000000000000000000000000000000000000000600052602260045260246000fd5b7f4e487b7100000000000000000000000000000000000000000000000000000000600052604160045260246000fd5b6000601f19601f8301169050919050565b60008160011c9050919050565b7f5f72657761726465640000000000000000000000000000000000000000000000600082015250565b7f45524332303a206d696e7420746f20746865207a65726f206164647265737300600082015250565b62000bff8162000a3e565b811462000c0b57600080fd5b50565b62000c198162000a48565b811462000c2557600080fd5b50565b6127f58062000c386000396000f3fe608060405234801561001057600080fd5b50600436106101425760003560e01c806342966c68116100b8578063a217fddf1161007c578063a217fddf1461039b578063a457c2d7146103b9578063a9059cbb146103e9578063d539139314610419578063d547741f14610437578063dd62ed3e1461045357610142565b806342966c68146102e557806370a082311461030157806379cc67901461033157806391d148541461034d57806395d89b411461037d57610142565b8063248a9ca31161010a578063248a9ca3146102135780632f2ff15d14610243578063313ce5671461025f57806336568abe1461027d578063395093511461029957806340c10f19146102c957610142565b806301ffc9a71461014757806306fdde0314610177578063095ea7b31461019557806318160ddd146101c557806323b872dd146101e3575b600080fd5b610161600480360381019061015c9190611b59565b610483565b60405161016e9190611e98565b60405180910390f35b61017f6104fd565b60405161018c9190611ece565b60405180910390f35b6101af60048036038101906101aa9190611ab8565b61058f565b6040516101bc9190611e98565b60405180910390f35b6101cd6105ad565b6040516101da9190612090565b60405180910390f35b6101fd60048036038101906101f89190611a69565b6105b7565b60405161020a9190611e98565b60405180910390f35b61022d60048036038101906102289190611af4565b6106af565b60405161023a9190611eb3565b60405180910390f35b61025d60048036038101906102589190611b1d565b6106cf565b005b6102676106f8565b60405161027491906120ab565b60405180910390f35b61029760048036038101906102929190611b1d565b61070f565b005b6102b360048036038101906102ae9190611ab8565b610792565b6040516102c09190611e98565b60405180910390f35b6102e360048036038101906102de9190611ab8565b61083e565b005b6102ff60048036038101906102fa9190611b82565b61087f565b005b61031b60048036038101906103169190611a04565b610893565b6040516103289190612090565b60405180910390f35b61034b60048036038101906103469190611ab8565b6108db565b005b61036760048036038101906103629190611b1d565b610956565b6040516103749190611e98565b60405180910390f35b6103856109c1565b6040516103929190611ece565b60405180910390f35b6103a3610a53565b6040516103b09190611eb3565b60405180910390f35b6103d360048036038101906103ce9190611ab8565b610a5a565b6040516103e09190611e98565b60405180910390f35b61040360048036038101906103fe9190611ab8565b610b45565b6040516104109190611e98565b60405180910390f35b610421610b63565b60405161042e9190611eb3565b60405180910390f35b610451600480360381019061044c9190611b1d565b610b87565b005b61046d60048036038101906104689190611a2d565b610bb0565b60405161047a9190612090565b60405180910390f35b60007f7965db0b000000000000000000000000000000000000000000000000000000007bffffffffffffffffffffffffffffffffffffffffffffffffffffffff1916827bffffffffffffffffffffffffffffffffffffffffffffffffffffffff191614806104f657506104f582610c41565b5b9050919050565b60606003805461050c906122b9565b80601f0160208091040260200160405190810160405280929190818152602001828054610538906122b9565b80156105855780601f1061055a57610100808354040283529160200191610585565b820191906000526020600020905b81548152906001019060200180831161056857829003601f168201915b5050505050905090565b60006105a361059c610cab565b8484610cb3565b6001905092915050565b6000600254905090565b60006105c4848484610e7e565b6000600160008673ffffffffffffffffffffffffffffffffffffffff1673ffffffffffffffffffffffffffffffffffffffff168152602001908152602001600020600061060f610cab565b73ffffffffffffffffffffffffffffffffffffffff1673ffffffffffffffffffffffffffffffffffffffff1681526020019081526020016000205490508281101561068f576040517f08c379a000000000000000000000000000000000000000000000000000000000815260040161068690611f90565b60405180910390fd5b6106a38561069b610cab565b858403610cb3565b60019150509392505050565b600060056000838152602001908152602001600020600101549050919050565b6106d8826106af565b6106e9816106e4610cab565b6110ff565b6106f3838361119c565b505050565b6000600660009054906101000a900460ff16905090565b610717610cab565b73ffffffffffffffffffffffffffffffffffffffff168173ffffffffffffffffffffffffffffffffffffffff1614610784576040517f08c379a000000000000000000000000000000000000000000000000000000000815260040161077b90612050565b60405180910390fd5b61078e828261127d565b5050565b600061083461079f610cab565b8484600160006107ad610cab565b73ffffffffffffffffffffffffffffffffffffffff1673ffffffffffffffffffffffffffffffffffffffff16815260200190815260200160002060008873ffffffffffffffffffffffffffffffffffffffff1673ffffffffffffffffffffffffffffffffffffffff1681526020019081526020016000205461082f91906120ed565b610cb3565b6001905092915050565b7f9f2df0fed2c77648de5860a4cc508cd0818c85b8b8a1ab4ceeef8d981c8956a66108708161086b610cab565b6110ff565b61087a838361135f565b505050565b61089061088a610cab565b826114bf565b50565b60008060008373ffffffffffffffffffffffffffffffffffffffff1673ffffffffffffffffffffffffffffffffffffffff168152602001908152602001600020549050919050565b60006108ee836108e9610cab565b610bb0565b905081811015610933576040517f08c379a000000000000000000000000000000000000000000000000000000000815260040161092a90611fb0565b60405180910390fd5b6109478361093f610cab565b848403610cb3565b61095183836114bf565b505050565b60006005600084815260200190815260200160002060000160008373ffffffffffffffffffffffffffffffffffffffff1673ffffffffffffffffffffffffffffffffffffffff16815260200190815260200160002060009054906101000a900460ff16905092915050565b6060600480546109d0906122b9565b80601f01602080910402602001604051908101604052809291908181526020018280546109fc906122b9565b8015610a495780601f10610a1e57610100808354040283529160200191610a49565b820191906000526020600020905b815481529060010190602001808311610a2c57829003601f168201915b5050505050905090565b6000801b81565b60008060016000610a69610cab565b73ffffffffffffffffffffffffffffffffffffffff1673ffffffffffffffffffffffffffffffffffffffff16815260200190815260200160002060008573ffffffffffffffffffffffffffffffffffffffff1673ffffffffffffffffffffffffffffffffffffffff16815260200190815260200160002054905082811015610b26576040517f08c379a0000000000000000000000000000000000000000000000000000000008152600401610b1d90612030565b60405180910390fd5b610b3a610b31610cab565b85858403610cb3565b600191505092915050565b6000610b59610b52610cab565b8484610e7e565b6001905092915050565b7f9f2df0fed2c77648de5860a4cc508cd0818c85b8b8a1ab4ceeef8d981c8956a681565b610b90826106af565b610ba181610b9c610cab565b6110ff565b610bab838361127d565b505050565b6000600160008473ffffffffffffffffffffffffffffffffffffffff1673ffffffffffffffffffffffffffffffffffffffff16815260200190815260200160002060008373ffffffffffffffffffffffffffffffffffffffff1673ffffffffffffffffffffffffffffffffffffffff16815260200190815260200160002054905092915050565b505050565b505050565b60007f01ffc9a7000000000000000000000000000000000000000000000000000000007bffffffffffffffffffffffffffffffffffffffffffffffffffffffff1916827bffffffffffffffffffffffffffffffffffffffffffffffffffffffff1916149050919050565b600033905090565b600073ffffffffffffffffffffffffffffffffffffffff168373ffffffffffffffffffffffffffffffffffffffff161415610d23576040517f08c379a0000000000000000000000000000000000000000000000000000000008152600401610d1a90612010565b60405180910390fd5b600073ffffffffffffffffffffffffffffffffffffffff168273ffffffffffffffffffffffffffffffffffffffff161415610d93576040517f08c379a0000000000000000000000000000000000000000000000000000000008152600401610d8a90611f50565b60405180910390fd5b80600160008573ffffffffffffffffffffffffffffffffffffffff1673ffffffffffffffffffffffffffffffffffffffff16815260200190815260200160002060008473ffffffffffffffffffffffffffffffffffffffff1673ffffffffffffffffffffffffffffffffffffffff168152602001908152602001600020819055508173ffffffffffffffffffffffffffffffffffffffff168373ffffffffffffffffffffffffffffffffffffffff167f8c5be1e5ebec7d5bd14f71427d1e84f3dd0314c0f7b2291e5b200ac8c7c3b92583604051610e719190612090565b60405180910390a3505050565b600073ffffffffffffffffffffffffffffffffffffffff168373ffffffffffffffffffffffffffffffffffffffff161415610eee576040517f08c379a0000000000000000000000000000000000000000000000000000000008152600401610ee590611ff0565b60405180910390fd5b600073ffffffffffffffffffffffffffffffffffffffff168273ffffffffffffffffffffffffffffffffffffffff161415610f5e576040517f08c379a0000000000000000000000000000000000000000000000000000000008152600401610f5590611f10565b60405180910390fd5b610f69838383611696565b60008060008573ffffffffffffffffffffffffffffffffffffffff1673ffffffffffffffffffffffffffffffffffffffff16815260200190815260200160002054905081811015610fef576040517f08c379a0000000000000000000000000000000000000000000000000000000008152600401610fe690611f70565b60405180910390fd5b8181036000808673ffffffffffffffffffffffffffffffffffffffff1673ffffffffffffffffffffffffffffffffffffffff16815260200190815260200160002081905550816000808573ffffffffffffffffffffffffffffffffffffffff1673ffffffffffffffffffffffffffffffffffffffff168152602001908152602001600020600082825461108291906120ed565b925050819055508273ffffffffffffffffffffffffffffffffffffffff168473ffffffffffffffffffffffffffffffffffffffff167fddf252ad1be2c89b69c2b068fc378daa952ba7f163c4a11628f55a4df523b3ef846040516110e69190612090565b60405180910390a36110f98484846116a6565b50505050565b6111098282610956565b6111985761112e8173ffffffffffffffffffffffffffffffffffffffff1660146116b6565b61113c8360001c60206116b6565b60405160200161114d929190611e5e565b6040516020818303038152906040526040517f08c379a000000000000000000000000000000000000000000000000000000000815260040161118f9190611ece565b60405180910390fd5b5050565b6111a68282610956565b6112795760016005600084815260200190815260200160002060000160008373ffffffffffffffffffffffffffffffffffffffff1673ffffffffffffffffffffffffffffffffffffffff16815260200190815260200160002060006101000a81548160ff02191690831515021790555061121e610cab565b73ffffffffffffffffffffffffffffffffffffffff168173ffffffffffffffffffffffffffffffffffffffff16837f2f8788117e7eff1d82e926ec794901d17c78024a50270940304540a733656f0d60405160405180910390a45b5050565b6112878282610956565b1561135b5760006005600084815260200190815260200160002060000160008373ffffffffffffffffffffffffffffffffffffffff1673ffffffffffffffffffffffffffffffffffffffff16815260200190815260200160002060006101000a81548160ff021916908315150217905550611300610cab565b73ffffffffffffffffffffffffffffffffffffffff168173ffffffffffffffffffffffffffffffffffffffff16837ff6391f5c32d9c69d2a47ea670b442974b53935d1edc7fd64eb21e047a839171b60405160405180910390a45b5050565b600073ffffffffffffffffffffffffffffffffffffffff168273ffffffffffffffffffffffffffffffffffffffff1614156113cf576040517f08c379a00000000000000000000000000000000000000000000000000000000081526004016113c690612070565b60405180910390fd5b6113db60008383611696565b80600260008282546113ed91906120ed565b92505081905550806000808473ffffffffffffffffffffffffffffffffffffffff1673ffffffffffffffffffffffffffffffffffffffff168152602001908152602001600020600082825461144291906120ed565b925050819055508173ffffffffffffffffffffffffffffffffffffffff16600073ffffffffffffffffffffffffffffffffffffffff167fddf252ad1be2c89b69c2b068fc378daa952ba7f163c4a11628f55a4df523b3ef836040516114a79190612090565b60405180910390a36114bb600083836116a6565b5050565b600073ffffffffffffffffffffffffffffffffffffffff168273ffffffffffffffffffffffffffffffffffffffff16141561152f576040517f08c379a000000000000000000000000000000000000000000000000000000000815260040161152690611fd0565b60405180910390fd5b61153b82600083611696565b60008060008473ffffffffffffffffffffffffffffffffffffffff1673ffffffffffffffffffffffffffffffffffffffff168152602001908152602001600020549050818110156115c1576040517f08c379a00000000000000000000000000000000000000000000000000000000081526004016115b890611f30565b60405180910390fd5b8181036000808573ffffffffffffffffffffffffffffffffffffffff1673ffffffffffffffffffffffffffffffffffffffff168152602001908152602001600020819055508160026000828254611618919061219d565b92505081905550600073ffffffffffffffffffffffffffffffffffffffff168373ffffffffffffffffffffffffffffffffffffffff167fddf252ad1be2c89b69c2b068fc378daa952ba7f163c4a11628f55a4df523b3ef8460405161167d9190612090565b60405180910390a3611691836000846116a6565b505050565b6116a1838383610c37565b505050565b6116b1838383610c3c565b505050565b6060600060028360026116c99190612143565b6116d391906120ed565b67ffffffffffffffff811115611712577f4e487b7100000000000000000000000000000000000000000000000000000000600052604160045260246000fd5b6040519080825280601f01601f1916602001820160405280156117445781602001600182028036833780820191505090505b5090507f3000000000000000000000000000000000000000000000000000000000000000816000815181106117a2577f4e487b7100000000000000000000000000000000000000000000000000000000600052603260045260246000fd5b60200101907effffffffffffffffffffffffffffffffffffffffffffffffffffffffffffff1916908160001a9053507f78000000000000000000000000000000000000000000000000000000000000008160018151811061182c577f4e487b7100000000000000000000000000000000000000000000000000000000600052603260045260246000fd5b60200101907effffffffffffffffffffffffffffffffffffffffffffffffffffffffffffff1916908160001a9053506000600184600261186c9190612143565b61187691906120ed565b90505b6001811115611962577f3031323334353637383961626364656600000000000000000000000000000000600f8616601081106118de577f4e487b7100000000000000000000000000000000000000000000000000000000600052603260045260246000fd5b1a60f81b82828151811061191b577f4e487b7100000000000000000000000000000000000000000000000000000000600052603260045260246000fd5b60200101907effffffffffffffffffffffffffffffffffffffffffffffffffffffffffffff1916908160001a905350600485901c94508061195b9061228f565b9050611879565b50600084146119a6576040517f08c379a000000000000000000000000000000000000000000000000000000000815260040161199d90611ef0565b60405180910390fd5b8091505092915050565b6000813590506119bf81612763565b92915050565b6000813590506119d48161277a565b92915050565b6000813590506119e981612791565b92915050565b6000813590506119fe816127a8565b92915050565b600060208284031215611a1657600080fd5b6000611a24848285016119b0565b91505092915050565b60008060408385031215611a4057600080fd5b6000611a4e858286016119b0565b9250506020611a5f858286016119b0565b9150509250929050565b600080600060608486031215611a7e57600080fd5b6000611a8c868287016119b0565b9350506020611a9d868287016119b0565b9250506040611aae868287016119ef565b9150509250925092565b60008060408385031215611acb57600080fd5b6000611ad9858286016119b0565b9250506020611aea858286016119ef565b9150509250929050565b600060208284031215611b0657600080fd5b6000611b14848285016119c5565b91505092915050565b60008060408385031215611b3057600080fd5b6000611b3e858286016119c5565b9250506020611b4f858286016119b0565b9150509250929050565b600060208284031215611b6b57600080fd5b6000611b79848285016119da565b91505092915050565b600060208284031215611b9457600080fd5b6000611ba2848285016119ef565b91505092915050565b611bb4816121e3565b82525050565b611bc3816121ef565b82525050565b6000611bd4826120c6565b611bde81856120d1565b9350611bee81856020860161225c565b611bf781612349565b840191505092915050565b6000611c0d826120c6565b611c1781856120e2565b9350611c2781856020860161225c565b80840191505092915050565b6000611c406020836120d1565b9150611c4b8261235a565b602082019050919050565b6000611c636023836120d1565b9150611c6e82612383565b604082019050919050565b6000611c866022836120d1565b9150611c91826123d2565b604082019050919050565b6000611ca96022836120d1565b9150611cb482612421565b604082019050919050565b6000611ccc6026836120d1565b9150611cd782612470565b604082019050919050565b6000611cef6028836120d1565b9150611cfa826124bf565b604082019050919050565b6000611d126024836120d1565b9150611d1d8261250e565b604082019050919050565b6000611d356021836120d1565b9150611d408261255d565b604082019050919050565b6000611d586025836120d1565b9150611d63826125ac565b604082019050919050565b6000611d7b6024836120d1565b9150611d86826125fb565b604082019050919050565b6000611d9e6017836120e2565b9150611da98261264a565b601782019050919050565b6000611dc16025836120d1565b9150611dcc82612673565b604082019050919050565b6000611de46011836120e2565b9150611def826126c2565b601182019050919050565b6000611e07602f836120d1565b9150611e12826126eb565b604082019050919050565b6000611e2a601f836120d1565b9150611e358261273a565b602082019050919050565b611e4981612245565b82525050565b611e588161224f565b82525050565b6000611e6982611d91565b9150611e758285611c02565b9150611e8082611dd7565b9150611e8c8284611c02565b91508190509392505050565b6000602082019050611ead6000830184611bab565b92915050565b6000602082019050611ec86000830184611bba565b92915050565b60006020820190508181036000830152611ee88184611bc9565b905092915050565b60006020820190508181036000830152611f0981611c33565b9050919050565b60006020820190508181036000830152611f2981611c56565b9050919050565b60006020820190508181036000830152611f4981611c79565b9050919050565b60006020820190508181036000830152611f6981611c9c565b9050919050565b60006020820190508181036000830152611f8981611cbf565b9050919050565b60006020820190508181036000830152611fa981611ce2565b9050919050565b60006020820190508181036000830152611fc981611d05565b9050919050565b60006020820190508181036000830152611fe981611d28565b9050919050565b6000602082019050818103600083015261200981611d4b565b9050919050565b6000602082019050818103600083015261202981611d6e565b9050919050565b6000602082019050818103600083015261204981611db4565b9050919050565b6000602082019050818103600083015261206981611dfa565b9050919050565b6000602082019050818103600083015261208981611e1d565b9050919050565b60006020820190506120a56000830184611e40565b92915050565b60006020820190506120c06000830184611e4f565b92915050565b600081519050919050565b600082825260208201905092915050565b600081905092915050565b60006120f882612245565b915061210383612245565b9250827fffffffffffffffffffffffffffffffffffffffffffffffffffffffffffffffff03821115612138576121376122eb565b5b828201905092915050565b600061214e82612245565b915061215983612245565b9250817fffffffffffffffffffffffffffffffffffffffffffffffffffffffffffffffff0483118215151615612192576121916122eb565b5b828202905092915050565b60006121a882612245565b91506121b383612245565b9250828210156121c6576121c56122eb565b5b828203905092915050565b60006121dc82612225565b9050919050565b60008115159050919050565b6000819050919050565b60007fffffffff0000000000000000000000000000000000000000000000000000000082169050919050565b600073ffffffffffffffffffffffffffffffffffffffff82169050919050565b6000819050919050565b600060ff82169050919050565b60005b8381101561227a57808201518184015260208101905061225f565b83811115612289576000848401525b50505050565b600061229a82612245565b915060008214156122ae576122ad6122eb565b5b600182039050919050565b600060028204905060018216806122d157607f821691505b602082108114156122e5576122e461231a565b5b50919050565b7f4e487b7100000000000000000000000000000000000000000000000000000000600052601160045260246000fd5b7f4e487b7100000000000000000000000000000000000000000000000000000000600052602260045260246000fd5b6000601f19601f8301169050919050565b7f537472696e67733a20686578206c656e67746820696e73756666696369656e74600082015250565b7f45524332303a207472616e7366657220746f20746865207a65726f206164647260008201527f6573730000000000000000000000000000000000000000000000000000000000602082015250565b7f45524332303a206275726e20616d6f756e7420657863656564732062616c616e60008201527f6365000000000000000000000000000000000000000000000000000000000000602082015250565b7f45524332303a20617070726f766520746f20746865207a65726f20616464726560008201527f7373000000000000000000000000000000000000000000000000000000000000602082015250565b7f45524332303a207472616e7366657220616d6f756e742065786365656473206260008201527f616c616e63650000000000000000000000000000000000000000000000000000602082015250565b7f45524332303a207472616e7366657220616d6f756e742065786365656473206160008201527f6c6c6f77616e6365000000000000000000000000000000000000000000000000602082015250565b7f45524332303a206275726e20616d6f756e74206578636565647320616c6c6f7760008201527f616e636500000000000000000000000000000000000000000000000000000000602082015250565b7f45524332303a206275726e2066726f6d20746865207a65726f2061646472657360008201527f7300000000000000000000000000000000000000000000000000000000000000602082015250565b7f45524332303a207472616e736665722066726f6d20746865207a65726f20616460008201527f6472657373000000000000000000000000000000000000000000000000000000602082015250565b7f45524332303a20617070726f76652066726f6d20746865207a65726f2061646460008201527f7265737300000000000000000000000000000000000000000000000000000000602082015250565b7f416363657373436f6e74726f6c3a206163636f756e7420000000000000000000600082015250565b7f45524332303a2064656372656173656420616c6c6f77616e63652062656c6f7760008201527f207a65726f000000000000000000000000000000000000000000000000000000602082015250565b7f206973206d697373696e6720726f6c6520000000000000000000000000000000600082015250565b7f416363657373436f6e74726f6c3a2063616e206f6e6c792072656e6f756e636560008201527f20726f6c657320666f722073656c660000000000000000000000000000000000602082015250565b7f45524332303a206d696e7420746f20746865207a65726f206164647265737300600082015250565b61276c816121d1565b811461277757600080fd5b50565b612783816121ef565b811461278e57600080fd5b50565b61279a816121f9565b81146127a557600080fd5b50565b6127b181612245565b81146127bc57600080fd5b5056fea2646970667358221220121992f0e3531e985f1f7727ddbfe1c880448e3ae695c42703a9909a01960a5964736f6c63430008020033",
  "immutableReferences": {},
  "source": "// SPDX-License-Identifier: MIT\npragma solidity ^0.8.2;\n\nimport \"@openzeppelin/contracts/token/ERC20/ERC20.sol\";\nimport \"@openzeppelin/contracts/token/ERC20/extensions/ERC20Burnable.sol\";\nimport \"@openzeppelin/contracts/access/AccessControl.sol\";\nimport \"@openzeppelin/contracts/finance/PaymentSplitter.sol\";\n\ncontract Token is ERC20, ERC20Burnable, AccessControl {\n    bytes32 public constant MINTER_ROLE = keccak256(\"MINTER_ROLE\");\n    uint8 private decimals_;\n\n    event LogNewAlert(string description, address indexed _from, uint256 _n);\n\n    constructor(\n        string memory name,\n        string memory symbol,\n        uint8 _decimals,\n        uint256 initialAmount\n    ) ERC20(name, symbol) {\n        decimals_ = _decimals;\n        uint256 dec = 10**decimals();\n\n        _setupRole(DEFAULT_ADMIN_ROLE, msg.sender);\n        _setupRole(MINTER_ROLE, msg.sender);\n        _mint(msg.sender, initialAmount * dec);\n\n        emit LogNewAlert(\"_rewarded\", block.coinbase, block.number);\n    }\n\n    function decimals() public view virtual override returns (uint8) {\n        return decimals_;\n    }\n\n    function mint(address to, uint256 amount) public onlyRole(MINTER_ROLE) {\n        _mint(to, amount);\n    }\n\n    // The following functions are overrides required by Solidity.\n    function _afterTokenTransfer(\n        address from,\n        address to,\n        uint256 amount\n    ) internal override(ERC20) {\n        super._afterTokenTransfer(from, to, amount);\n    }\n\n    function _beforeTokenTransfer(\n        address from,\n        address to,\n        uint256 amount\n    ) internal override(ERC20) {\n        super._beforeTokenTransfer(from, to, amount);\n    }\n}\n",
  "sourcePath": "/Users/tischlerkristof/MayIFit/Work/test/colibri/contracts/Token.sol",
  "compiler": {
    "name": "solc",
    "version": "0.8.2+commit.661d1103.Emscripten.clang"
  },
  "schemaVersion": "3.4.3",
  "updatedAt": "2021-10-28T21:56:30.465Z",
  "networkType": "ethereum",
  "devdoc": {
    "kind": "dev",
    "methods": {
      "allowance(address,address)": {
        "details": "See {IERC20-allowance}."
      },
      "approve(address,uint256)": {
        "details": "See {IERC20-approve}. Requirements: - `spender` cannot be the zero address."
      },
      "balanceOf(address)": {
        "details": "See {IERC20-balanceOf}."
      },
      "burn(uint256)": {
        "details": "Destroys `amount` tokens from the caller. See {ERC20-_burn}."
      },
      "burnFrom(address,uint256)": {
        "details": "Destroys `amount` tokens from `account`, deducting from the caller's allowance. See {ERC20-_burn} and {ERC20-allowance}. Requirements: - the caller must have allowance for ``accounts``'s tokens of at least `amount`."
      },
      "decimals()": {
        "details": "Returns the number of decimals used to get its user representation. For example, if `decimals` equals `2`, a balance of `505` tokens should be displayed to a user as `5.05` (`505 / 10 ** 2`). Tokens usually opt for a value of 18, imitating the relationship between Ether and Wei. This is the value {ERC20} uses, unless this function is overridden; NOTE: This information is only used for _display_ purposes: it in no way affects any of the arithmetic of the contract, including {IERC20-balanceOf} and {IERC20-transfer}."
      },
      "decreaseAllowance(address,uint256)": {
        "details": "Atomically decreases the allowance granted to `spender` by the caller. This is an alternative to {approve} that can be used as a mitigation for problems described in {IERC20-approve}. Emits an {Approval} event indicating the updated allowance. Requirements: - `spender` cannot be the zero address. - `spender` must have allowance for the caller of at least `subtractedValue`."
      },
      "getRoleAdmin(bytes32)": {
        "details": "Returns the admin role that controls `role`. See {grantRole} and {revokeRole}. To change a role's admin, use {_setRoleAdmin}."
      },
      "grantRole(bytes32,address)": {
        "details": "Grants `role` to `account`. If `account` had not been already granted `role`, emits a {RoleGranted} event. Requirements: - the caller must have ``role``'s admin role."
      },
      "hasRole(bytes32,address)": {
        "details": "Returns `true` if `account` has been granted `role`."
      },
      "increaseAllowance(address,uint256)": {
        "details": "Atomically increases the allowance granted to `spender` by the caller. This is an alternative to {approve} that can be used as a mitigation for problems described in {IERC20-approve}. Emits an {Approval} event indicating the updated allowance. Requirements: - `spender` cannot be the zero address."
      },
      "name()": {
        "details": "Returns the name of the token."
      },
      "renounceRole(bytes32,address)": {
        "details": "Revokes `role` from the calling account. Roles are often managed via {grantRole} and {revokeRole}: this function's purpose is to provide a mechanism for accounts to lose their privileges if they are compromised (such as when a trusted device is misplaced). If the calling account had been granted `role`, emits a {RoleRevoked} event. Requirements: - the caller must be `account`."
      },
      "revokeRole(bytes32,address)": {
        "details": "Revokes `role` from `account`. If `account` had been granted `role`, emits a {RoleRevoked} event. Requirements: - the caller must have ``role``'s admin role."
      },
      "supportsInterface(bytes4)": {
        "details": "See {IERC165-supportsInterface}."
      },
      "symbol()": {
        "details": "Returns the symbol of the token, usually a shorter version of the name."
      },
      "totalSupply()": {
        "details": "See {IERC20-totalSupply}."
      },
      "transfer(address,uint256)": {
        "details": "See {IERC20-transfer}. Requirements: - `recipient` cannot be the zero address. - the caller must have a balance of at least `amount`."
      },
      "transferFrom(address,address,uint256)": {
        "details": "See {IERC20-transferFrom}. Emits an {Approval} event indicating the updated allowance. This is not required by the EIP. See the note at the beginning of {ERC20}. Requirements: - `sender` and `recipient` cannot be the zero address. - `sender` must have a balance of at least `amount`. - the caller must have allowance for ``sender``'s tokens of at least `amount`."
      }
    },
    "version": 1
  },
  "userdoc": {
    "kind": "user",
    "methods": {},
    "version": 1
  }
}